{
  "contractName": "FoodSupplyChainShipingLogistic",
  "abi": [
    {
      "constant": true,
      "inputs": [],
      "name": "lastAccess",
      "outputs": [
        {
          "name": "",
          "type": "address"
        }
      ],
      "payable": false,
      "stateMutability": "view",
      "type": "function"
    },
    {
      "inputs": [
        {
          "name": "_foodSupplyChain",
          "type": "address"
        },
        {
          "name": "_supplyChainUser",
          "type": "address"
        }
      ],
      "payable": false,
      "stateMutability": "nonpayable",
      "type": "constructor"
    },
    {
      "anonymous": false,
      "inputs": [
        {
          "indexed": true,
          "name": "user",
          "type": "address"
        },
        {
          "indexed": true,
          "name": "batchNo",
          "type": "address"
        }
      ],
      "name": "DoneExporting",
      "type": "event"
    },
    {
      "anonymous": false,
      "inputs": [
        {
          "indexed": true,
          "name": "user",
          "type": "address"
        },
        {
          "indexed": true,
          "name": "batchNo",
          "type": "address"
        }
      ],
      "name": "DoneCarrying",
      "type": "event"
    },
    {
      "anonymous": false,
      "inputs": [
        {
          "indexed": true,
          "name": "user",
          "type": "address"
        },
        {
          "indexed": true,
          "name": "batchNo",
          "type": "address"
        }
      ],
      "name": "DoneDistribution",
      "type": "event"
    },
    {
      "anonymous": false,
      "inputs": [
        {
          "indexed": true,
          "name": "user",
          "type": "address"
        },
        {
          "indexed": true,
          "name": "batchNo",
          "type": "address"
        }
      ],
      "name": "DoneProcessing",
      "type": "event"
    },
    {
      "anonymous": false,
      "inputs": [
        {
          "indexed": true,
          "name": "user",
          "type": "address"
        },
        {
          "indexed": true,
          "name": "batchNo",
          "type": "address"
        }
      ],
      "name": "DoneRetailing",
      "type": "event"
    },
    {
      "constant": true,
      "inputs": [
        {
          "name": "batchNo",
          "type": "address"
        }
      ],
      "name": "getExporterData",
      "outputs": [
        {
          "name": "exporterDetail",
          "type": "string"
        },
        {
          "name": "packageDetail",
          "type": "string"
        },
        {
          "name": "destinationAddress",
          "type": "string"
        },
        {
          "name": "shipID",
          "type": "string"
        },
        {
          "name": "quantity",
          "type": "uint256"
        },
        {
          "name": "loadingDateTime",
          "type": "uint256"
        }
      ],
      "payable": false,
      "stateMutability": "view",
      "type": "function"
    },
    {
      "constant": false,
      "inputs": [
        {
          "name": "_batchNo",
          "type": "address"
        },
        {
          "name": "_exporterDetail",
          "type": "string"
        },
        {
          "name": "_packageDetail",
          "type": "string"
        },
        {
          "name": "_destinationAddress",
          "type": "string"
        },
        {
          "name": "_shipID",
          "type": "string"
        },
        {
          "name": "_quantity",
          "type": "uint256"
        },
        {
          "name": "_loadingDateTime",
          "type": "uint256"
        }
      ],
      "name": "updateExporterData",
      "outputs": [
        {
          "name": "",
          "type": "bool"
        }
      ],
      "payable": false,
      "stateMutability": "nonpayable",
      "type": "function"
    },
    {
      "constant": true,
      "inputs": [
        {
          "name": "batchNo",
          "type": "address"
        }
      ],
      "name": "getCarrierData",
      "outputs": [
        {
          "name": "carrierName",
          "type": "string"
        },
        {
          "name": "carrierNo",
          "type": "string"
        },
        {
          "name": "shipmentID",
          "type": "string"
        },
        {
          "name": "maintainedTemperature",
          "type": "string"
        },
        {
          "name": "maintainedHumidity",
          "type": "string"
        },
        {
          "name": "shipmentDateTime",
          "type": "uint256"
        }
      ],
      "payable": false,
      "stateMutability": "view",
      "type": "function"
    },
    {
      "constant": false,
      "inputs": [
        {
          "name": "_batchNo",
          "type": "address"
        },
        {
          "name": "_carrierName",
          "type": "string"
        },
        {
          "name": "_carrierNo",
          "type": "string"
        },
        {
          "name": "_shipmentID",
          "type": "string"
        },
        {
          "name": "_maintainedTemperature",
          "type": "string"
        },
        {
          "name": "_maintainedHumidity",
          "type": "string"
        },
        {
          "name": "_shipmentDateTime",
          "type": "uint256"
        }
      ],
      "name": "updateCarrierData",
      "outputs": [
        {
          "name": "",
          "type": "bool"
        }
      ],
      "payable": false,
      "stateMutability": "nonpayable",
      "type": "function"
    },
    {
      "constant": true,
      "inputs": [
        {
          "name": "batchNo",
          "type": "address"
        }
      ],
      "name": "getDistributorData",
      "outputs": [
        {
          "name": "certificateID",
          "type": "string"
        },
        {
          "name": "warehouseName",
          "type": "string"
        },
        {
          "name": "warehouseAddress",
          "type": "string"
        },
        {
          "name": "storageTemperature",
          "type": "string"
        },
        {
          "name": "storageHumidity",
          "type": "string"
        },
        {
          "name": "packagingDetail",
          "type": "string"
        },
        {
          "name": "quantity",
          "type": "uint256"
        }
      ],
      "payable": false,
      "stateMutability": "view",
      "type": "function"
    },
    {
      "constant": false,
      "inputs": [
        {
          "name": "_batchNo",
          "type": "address"
        },
        {
          "name": "_certificateID",
          "type": "string"
        },
        {
          "name": "_warehouseName",
          "type": "string"
        },
        {
          "name": "_warehouseAddress",
          "type": "string"
        },
        {
          "name": "_storageTemperature",
          "type": "string"
        },
        {
          "name": "_storageHumidity",
          "type": "string"
        },
        {
          "name": "_packagingDetail",
          "type": "string"
        },
        {
          "name": "_quantity",
          "type": "uint256"
        }
      ],
      "name": "updateDistributorData",
      "outputs": [
        {
          "name": "",
          "type": "bool"
        }
      ],
      "payable": false,
      "stateMutability": "nonpayable",
      "type": "function"
    },
    {
      "constant": true,
      "inputs": [
        {
          "name": "batchNo",
          "type": "address"
        }
      ],
      "name": "getProcessorData",
      "outputs": [
        {
          "name": "processorName",
          "type": "string"
        },
        {
          "name": "temperature",
          "type": "string"
        },
        {
          "name": "internalBatchNo",
          "type": "string"
        },
        {
          "name": "packageName",
          "type": "string"
        },
        {
          "name": "packageAddress",
          "type": "string"
        },
        {
          "name": "processingDateTime",
          "type": "uint256"
        }
      ],
      "payable": false,
      "stateMutability": "view",
      "type": "function"
    },
    {
      "constant": false,
      "inputs": [
        {
          "name": "_batchNo",
          "type": "address"
        },
        {
          "name": "_processorName",
          "type": "string"
        },
        {
          "name": "_temperature",
          "type": "string"
        },
        {
          "name": "_internalBatchNo",
          "type": "string"
        },
        {
          "name": "_packageName",
          "type": "string"
        },
        {
          "name": "_packageAddress",
          "type": "string"
        },
        {
          "name": "_processingDateTime",
          "type": "uint256"
        }
      ],
      "name": "updateProcessorData",
      "outputs": [
        {
          "name": "",
          "type": "bool"
        }
      ],
      "payable": false,
      "stateMutability": "nonpayable",
      "type": "function"
    },
    {
      "constant": true,
      "inputs": [
        {
          "name": "batchNo",
          "type": "address"
        }
      ],
      "name": "getRetailerData",
      "outputs": [
        {
          "name": "packageID",
          "type": "string"
        },
        {
          "name": "temperature",
          "type": "string"
        },
        {
          "name": "expiryDate",
          "type": "uint256"
        }
      ],
      "payable": false,
      "stateMutability": "view",
      "type": "function"
    },
    {
      "constant": false,
      "inputs": [
        {
          "name": "_batchNo",
          "type": "address"
        },
        {
          "name": "_packageID",
          "type": "string"
        },
        {
          "name": "_temperature",
          "type": "string"
        },
        {
          "name": "_expiryDate",
          "type": "uint256"
        }
      ],
      "name": "updateRetailerData",
      "outputs": [
        {
          "name": "",
          "type": "bool"
        }
      ],
      "payable": false,
      "stateMutability": "nonpayable",
      "type": "function"
    }
  ],
  "bytecode": "0x608060405234801561001057600080fd5b506040516040806200567a8339810180604052810190808051906020019092919080519060200190929190505050816000806101000a81548173ffffffffffffffffffffffffffffffffffffffff021916908373ffffffffffffffffffffffffffffffffffffffff16021790555080600160006101000a81548173ffffffffffffffffffffffffffffffffffffffff021916908373ffffffffffffffffffffffffffffffffffffffff16021790555050506155a980620000d16000396000f3006080604052600436106100af576000357c0100000000000000000000000000000000000000000000000000000000900463ffffffff16806306ecd6d4146100b4578063161d5c1b146102c2578063164cec1c146105a15780633480898b146107645780635ca4c103146107bb57806360ea3bc814610a2e5780636a7352d514610b1f5780636eb5a1fe14610c4e5780636fe7cef514610dd557806379440c9514610f98578063b6959d73146111a1575b600080fd5b3480156100c057600080fd5b506100f5600480360381019080803573ffffffffffffffffffffffffffffffffffffffff169060200190929190505050611414565b604051808060200180602001806020018060200187815260200186815260200185810385528b818151815260200191508051906020019080838360005b8381101561014d578082015181840152602081019050610132565b50505050905090810190601f16801561017a5780820380516001836020036101000a031916815260200191505b5085810384528a818151815260200191508051906020019080838360005b838110156101b3578082015181840152602081019050610198565b50505050905090810190601f1680156101e05780820380516001836020036101000a031916815260200191505b50858103835289818151815260200191508051906020019080838360005b838110156102195780820151818401526020810190506101fe565b50505050905090810190601f1680156102465780820380516001836020036101000a031916815260200191505b50858103825288818151815260200191508051906020019080838360005b8381101561027f578082015181840152602081019050610264565b50505050905090810190601f1680156102ac5780820380516001836020036101000a031916815260200191505b509a505050505050505050505060405180910390f35b3480156102ce57600080fd5b50610303600480360381019080803573ffffffffffffffffffffffffffffffffffffffff16906020019092919050505061174e565b6040518080602001806020018060200180602001806020018060200188815260200187810387528e818151815260200191508051906020019080838360005b8381101561035d578082015181840152602081019050610342565b50505050905090810190601f16801561038a5780820380516001836020036101000a031916815260200191505b5087810386528d818151815260200191508051906020019080838360005b838110156103c35780820151818401526020810190506103a8565b50505050905090810190601f1680156103f05780820380516001836020036101000a031916815260200191505b5087810385528c818151815260200191508051906020019080838360005b8381101561042957808201518184015260208101905061040e565b50505050905090810190601f1680156104565780820380516001836020036101000a031916815260200191505b5087810384528b818151815260200191508051906020019080838360005b8381101561048f578082015181840152602081019050610474565b50505050905090810190601f1680156104bc5780820380516001836020036101000a031916815260200191505b5087810383528a818151815260200191508051906020019080838360005b838110156104f55780820151818401526020810190506104da565b50505050905090810190601f1680156105225780820380516001836020036101000a031916815260200191505b50878103825289818151815260200191508051906020019080838360005b8381101561055b578082015181840152602081019050610540565b50505050905090810190601f1680156105885780820380516001836020036101000a031916815260200191505b509d505050505050505050505050505060405180910390f35b3480156105ad57600080fd5b5061074a600480360381019080803573ffffffffffffffffffffffffffffffffffffffff169060200190929190803590602001908201803590602001908080601f0160208091040260200160405190810160405280939291908181526020018383808284378201915050505050509192919290803590602001908201803590602001908080601f0160208091040260200160405190810160405280939291908181526020018383808284378201915050505050509192919290803590602001908201803590602001908080601f0160208091040260200160405190810160405280939291908181526020018383808284378201915050505050509192919290803590602001908201803590602001908080601f0160208091040260200160405190810160405280939291908181526020018383808284378201915050505050509192919290803590602001908201803590602001908080601f016020809104026020016040519081016040528093929190818152602001838380828437820191505050505050919291929080359060200190929190505050611bd3565b604051808215151515815260200191505060405180910390f35b34801561077057600080fd5b50610779612523565b604051808273ffffffffffffffffffffffffffffffffffffffff1673ffffffffffffffffffffffffffffffffffffffff16815260200191505060405180910390f35b3480156107c757600080fd5b506107fc600480360381019080803573ffffffffffffffffffffffffffffffffffffffff169060200190929190505050612549565b60405180806020018060200180602001806020018060200187815260200186810386528c818151815260200191508051906020019080838360005b83811015610852578082015181840152602081019050610837565b50505050905090810190601f16801561087f5780820380516001836020036101000a031916815260200191505b5086810385528b818151815260200191508051906020019080838360005b838110156108b857808201518184015260208101905061089d565b50505050905090810190601f1680156108e55780820380516001836020036101000a031916815260200191505b5086810384528a818151815260200191508051906020019080838360005b8381101561091e578082015181840152602081019050610903565b50505050905090810190601f16801561094b5780820380516001836020036101000a031916815260200191505b50868103835289818151815260200191508051906020019080838360005b83811015610984578082015181840152602081019050610969565b50505050905090810190601f1680156109b15780820380516001836020036101000a031916815260200191505b50868103825288818151815260200191508051906020019080838360005b838110156109ea5780820151818401526020810190506109cf565b50505050905090810190601f168015610a175780820380516001836020036101000a031916815260200191505b509b50505050505050505050505060405180910390f35b348015610a3a57600080fd5b50610b05600480360381019080803573ffffffffffffffffffffffffffffffffffffffff169060200190929190803590602001908201803590602001908080601f0160208091040260200160405190810160405280939291908181526020018383808284378201915050505050509192919290803590602001908201803590602001908080601f01602080910402602001604051908101604052809392919081815260200183838082843782019150505050505091929192908035906020019092919050505061291f565b604051808215151515815260200191505060405180910390f35b348015610b2b57600080fd5b50610b60600480360381019080803573ffffffffffffffffffffffffffffffffffffffff1690602001909291905050506131a6565b604051808060200180602001848152602001838103835286818151815260200191508051906020019080838360005b83811015610baa578082015181840152602081019050610b8f565b50505050905090810190601f168015610bd75780820380516001836020036101000a031916815260200191505b50838103825285818151815260200191508051906020019080838360005b83811015610c10578082015181840152602081019050610bf5565b50505050905090810190601f168015610c3d5780820380516001836020036101000a031916815260200191505b509550505050505060405180910390f35b348015610c5a57600080fd5b50610dbb600480360381019080803573ffffffffffffffffffffffffffffffffffffffff169060200190929190803590602001908201803590602001908080601f0160208091040260200160405190810160405280939291908181526020018383808284378201915050505050509192919290803590602001908201803590602001908080601f0160208091040260200160405190810160405280939291908181526020018383808284378201915050505050509192919290803590602001908201803590602001908080601f0160208091040260200160405190810160405280939291908181526020018383808284378201915050505050509192919290803590602001908201803590602001908080601f01602080910402602001604051908101604052809392919081815260200183838082843782019150505050505091929192908035906020019092919080359060200190929190505050613371565b604051808215151515815260200191505060405180910390f35b348015610de157600080fd5b50610f7e600480360381019080803573ffffffffffffffffffffffffffffffffffffffff169060200190929190803590602001908201803590602001908080601f0160208091040260200160405190810160405280939291908181526020018383808284378201915050505050509192919290803590602001908201803590602001908080601f0160208091040260200160405190810160405280939291908181526020018383808284378201915050505050509192919290803590602001908201803590602001908080601f0160208091040260200160405190810160405280939291908181526020018383808284378201915050505050509192919290803590602001908201803590602001908080601f0160208091040260200160405190810160405280939291908181526020018383808284378201915050505050509192919290803590602001908201803590602001908080601f016020809104026020016040519081016040528093929190818152602001838380828437820191505050505050919291929080359060200190929190505050613c93565b604051808215151515815260200191505060405180910390f35b348015610fa457600080fd5b50611187600480360381019080803573ffffffffffffffffffffffffffffffffffffffff169060200190929190803590602001908201803590602001908080601f0160208091040260200160405190810160405280939291908181526020018383808284378201915050505050509192919290803590602001908201803590602001908080601f0160208091040260200160405190810160405280939291908181526020018383808284378201915050505050509192919290803590602001908201803590602001908080601f0160208091040260200160405190810160405280939291908181526020018383808284378201915050505050509192919290803590602001908201803590602001908080601f0160208091040260200160405190810160405280939291908181526020018383808284378201915050505050509192919290803590602001908201803590602001908080601f0160208091040260200160405190810160405280939291908181526020018383808284378201915050505050509192919290803590602001908201803590602001908080601f0160208091040260200160405190810160405280939291908181526020018383808284378201915050505050509192919290803590602001909291905050506145e3565b604051808215151515815260200191505060405180910390f35b3480156111ad57600080fd5b506111e2600480360381019080803573ffffffffffffffffffffffffffffffffffffffff169060200190929190505050614f76565b60405180806020018060200180602001806020018060200187815260200186810386528c818151815260200191508051906020019080838360005b8381101561123857808201518184015260208101905061121d565b50505050905090810190601f1680156112655780820380516001836020036101000a031916815260200191505b5086810385528b818151815260200191508051906020019080838360005b8381101561129e578082015181840152602081019050611283565b50505050905090810190601f1680156112cb5780820380516001836020036101000a031916815260200191505b5086810384528a818151815260200191508051906020019080838360005b838110156113045780820151818401526020810190506112e9565b50505050905090810190601f1680156113315780820380516001836020036101000a031916815260200191505b50868103835289818151815260200191508051906020019080838360005b8381101561136a57808201518184015260208101905061134f565b50505050905090810190601f1680156113975780820380516001836020036101000a031916815260200191505b50868103825288818151815260200191508051906020019080838360005b838110156113d05780820151818401526020810190506113b5565b50505050905090810190601f1680156113fd5780820380516001836020036101000a031916815260200191505b509b50505050505050505050505060405180910390f35b60608060608060008061142561534c565b600360008973ffffffffffffffffffffffffffffffffffffffff1673ffffffffffffffffffffffffffffffffffffffff16815260200190815260200160002060c06040519081016040529081600082018054600181600116156101000203166002900480601f0160208091040260200160405190810160405280929190818152602001828054600181600116156101000203166002900480156115095780601f106114de57610100808354040283529160200191611509565b820191906000526020600020905b8154815290600101906020018083116114ec57829003601f168201915b50505050508152602001600182018054600181600116156101000203166002900480601f0160208091040260200160405190810160405280929190818152602001828054600181600116156101000203166002900480156115ab5780601f10611580576101008083540402835291602001916115ab565b820191906000526020600020905b81548152906001019060200180831161158e57829003601f168201915b50505050508152602001600282018054600181600116156101000203166002900480601f01602080910402602001604051908101604052809291908181526020018280546001816001161561010002031660029004801561164d5780601f106116225761010080835404028352916020019161164d565b820191906000526020600020905b81548152906001019060200180831161163057829003601f168201915b50505050508152602001600382018054600181600116156101000203166002900480601f0160208091040260200160405190810160405280929190818152602001828054600181600116156101000203166002900480156116ef5780601f106116c4576101008083540402835291602001916116ef565b820191906000526020600020905b8154815290600101906020018083116116d257829003601f168201915b50505050508152602001600482015481526020016005820154815250509050806000015181602001518260400151836060015184608001518560a001518595508494508393508292509650965096509650965096505091939550919395565b6060806060806060806000611761615383565b600560008a73ffffffffffffffffffffffffffffffffffffffff1673ffffffffffffffffffffffffffffffffffffffff16815260200190815260200160002060e06040519081016040529081600082018054600181600116156101000203166002900480601f0160208091040260200160405190810160405280929190818152602001828054600181600116156101000203166002900480156118455780601f1061181a57610100808354040283529160200191611845565b820191906000526020600020905b81548152906001019060200180831161182857829003601f168201915b50505050508152602001600182018054600181600116156101000203166002900480601f0160208091040260200160405190810160405280929190818152602001828054600181600116156101000203166002900480156118e75780601f106118bc576101008083540402835291602001916118e7565b820191906000526020600020905b8154815290600101906020018083116118ca57829003601f168201915b50505050508152602001600282018054600181600116156101000203166002900480601f0160208091040260200160405190810160405280929190818152602001828054600181600116156101000203166002900480156119895780601f1061195e57610100808354040283529160200191611989565b820191906000526020600020905b81548152906001019060200180831161196c57829003601f168201915b50505050508152602001600382018054600181600116156101000203166002900480601f016020809104026020016040519081016040528092919081815260200182805460018160011615610100020316600290048015611a2b5780601f10611a0057610100808354040283529160200191611a2b565b820191906000526020600020905b815481529060010190602001808311611a0e57829003601f168201915b50505050508152602001600482018054600181600116156101000203166002900480601f016020809104026020016040519081016040528092919081815260200182805460018160011615610100020316600290048015611acd5780601f10611aa257610100808354040283529160200191611acd565b820191906000526020600020905b815481529060010190602001808311611ab057829003601f168201915b50505050508152602001600582018054600181600116156101000203166002900480601f016020809104026020016040519081016040528092919081815260200182805460018160011615610100020316600290048015611b6f5780601f10611b4457610100808354040283529160200191611b6f565b820191906000526020600020905b815481529060010190602001808311611b5257829003601f168201915b505050505081526020016006820154815250509050806000015181602001518260400151836060015184608001518560a001518660c00151869650859550849450839350829250819150975097509750975097509750975050919395979092949650565b6000876040805190810160405280600981526020017f50524f434553534f520000000000000000000000000000000000000000000000815250806040516020018082805190602001908083835b602083101515611c455780518252602082019150602081019050602083039250611c20565b6001836020036101000a0380198251168184511680821785525050505050509050019150506040516020818303038152906040526040518082805190602001908083835b602083101515611cae5780518252602082019150602081019050602083039250611c89565b6001836020036101000a038019825116818451168082178552505050505050905001915050604051809103902060001916600160009054906101000a900473ffffffffffffffffffffffffffffffffffffffff1673ffffffffffffffffffffffffffffffffffffffff166327820851336040518263ffffffff167c0100000000000000000000000000000000000000000000000000000000028152600401808273ffffffffffffffffffffffffffffffffffffffff1673ffffffffffffffffffffffffffffffffffffffff168152602001915050600060405180830381600087803b158015611d9c57600080fd5b505af1158015611db0573d6000803e3d6000fd5b505050506040513d6000823e3d601f19601f820116820180604052506020811015611dda57600080fd5b810190808051640100000000811115611df257600080fd5b82810190506020810184811115611e0857600080fd5b8151856001820283011164010000000082111715611e2557600080fd5b50509291905050506040516020018082805190602001908083835b602083101515611e655780518252602082019150602081019050602083039250611e40565b6001836020036101000a0380198251168184511680821785525050505050509050019150506040516020818303038152906040526040518082805190602001908083835b602083101515611ece5780518252602082019150602081019050602083039250611ea9565b6001836020036101000a038019825116818451168082178552505050505050905001915050604051809103902060001916141515611f0b57600080fd5b806040516020018082805190602001908083835b602083101515611f445780518252602082019150602081019050602083039250611f1f565b6001836020036101000a0380198251168184511680821785525050505050509050019150506040516020818303038152906040526040518082805190602001908083835b602083101515611fad5780518252602082019150602081019050602083039250611f88565b6001836020036101000a0380198251168184511680821785525050505050509050019150506040518091039020600019166000809054906101000a900473ffffffffffffffffffffffffffffffffffffffff1673ffffffffffffffffffffffffffffffffffffffff16634d6b5e00846040518263ffffffff167c0100000000000000000000000000000000000000000000000000000000028152600401808273ffffffffffffffffffffffffffffffffffffffff1673ffffffffffffffffffffffffffffffffffffffff168152602001915050600060405180830381600087803b15801561209a57600080fd5b505af11580156120ae573d6000803e3d6000fd5b505050506040513d6000823e3d601f19601f8201168201806040525060208110156120d857600080fd5b8101908080516401000000008111156120f057600080fd5b8281019050602081018481111561210657600080fd5b815185600182028301116401000000008211171561212357600080fd5b50509291905050506040516020018082805190602001908083835b602083101515612163578051825260208201915060208101905060208303925061213e565b6001836020036101000a0380198251168184511680821785525050505050509050019150506040516020818303038152906040526040518082805190602001908083835b6020831015156121cc57805182526020820191506020810190506020830392506121a7565b6001836020036101000a03801982511681845116808217855250505050505090500191505060405180910390206000191614151561220957600080fd5b88601b60000190805190602001906122229291906153c1565b5087601b600101908051906020019061223c9291906153c1565b5086601b60020190805190602001906122569291906153c1565b5085601b60030190805190602001906122709291906153c1565b5084601b600401908051906020019061228a9291906153c1565b5083601b60050181905550601b600660008c73ffffffffffffffffffffffffffffffffffffffff1673ffffffffffffffffffffffffffffffffffffffff168152602001908152602001600020600082018160000190805460018160011615610100020316600290046122fd929190615441565b5060018201816001019080546001816001161561010002031660029004612325929190615441565b506002820181600201908054600181600116156101000203166002900461234d929190615441565b5060038201816003019080546001816001161561010002031660029004612375929190615441565b506004820181600401908054600181600116156101000203166002900461239d929190615441565b50600582015481600501559050506000809054906101000a900473ffffffffffffffffffffffffffffffffffffffff1673ffffffffffffffffffffffffffffffffffffffff16634bfe01468b6040518263ffffffff167c0100000000000000000000000000000000000000000000000000000000028152600401808273ffffffffffffffffffffffffffffffffffffffff1673ffffffffffffffffffffffffffffffffffffffff16815260200180602001828103825260088152602001807f52455441494c455200000000000000000000000000000000000000000000000081525060200192505050600060405180830381600087803b1580156124a057600080fd5b505af11580156124b4573d6000803e3d6000fd5b505050508973ffffffffffffffffffffffffffffffffffffffff163373ffffffffffffffffffffffffffffffffffffffff167fe10398ac963823ae3dc8fc855773d4c9c3d53c5aca656e360a2a5c2ae659f26160405160405180910390a3600192505050979650505050505050565b600260009054906101000a900473ffffffffffffffffffffffffffffffffffffffff1681565b6060806060806060600061255b6154c8565b600460008973ffffffffffffffffffffffffffffffffffffffff1673ffffffffffffffffffffffffffffffffffffffff16815260200190815260200160002060c06040519081016040529081600082018054600181600116156101000203166002900480601f01602080910402602001604051908101604052809291908181526020018280546001816001161561010002031660029004801561263f5780601f106126145761010080835404028352916020019161263f565b820191906000526020600020905b81548152906001019060200180831161262257829003601f168201915b50505050508152602001600182018054600181600116156101000203166002900480601f0160208091040260200160405190810160405280929190818152602001828054600181600116156101000203166002900480156126e15780601f106126b6576101008083540402835291602001916126e1565b820191906000526020600020905b8154815290600101906020018083116126c457829003601f168201915b50505050508152602001600282018054600181600116156101000203166002900480601f0160208091040260200160405190810160405280929190818152602001828054600181600116156101000203166002900480156127835780601f1061275857610100808354040283529160200191612783565b820191906000526020600020905b81548152906001019060200180831161276657829003601f168201915b50505050508152602001600382018054600181600116156101000203166002900480601f0160208091040260200160405190810160405280929190818152602001828054600181600116156101000203166002900480156128255780601f106127fa57610100808354040283529160200191612825565b820191906000526020600020905b81548152906001019060200180831161280857829003601f168201915b50505050508152602001600482018054600181600116156101000203166002900480601f0160208091040260200160405190810160405280929190818152602001828054600181600116156101000203166002900480156128c75780601f1061289c576101008083540402835291602001916128c7565b820191906000526020600020905b8154815290600101906020018083116128aa57829003601f168201915b505050505081526020016005820154815250509050806000015181602001518260400151836060015184608001518560a001518595508494508393508292508191509650965096509650965096505091939550919395565b6000846040805190810160405280600881526020017f52455441494c4552000000000000000000000000000000000000000000000000815250806040516020018082805190602001908083835b602083101515612991578051825260208201915060208101905060208303925061296c565b6001836020036101000a0380198251168184511680821785525050505050509050019150506040516020818303038152906040526040518082805190602001908083835b6020831015156129fa57805182526020820191506020810190506020830392506129d5565b6001836020036101000a038019825116818451168082178552505050505050905001915050604051809103902060001916600160009054906101000a900473ffffffffffffffffffffffffffffffffffffffff1673ffffffffffffffffffffffffffffffffffffffff166327820851336040518263ffffffff167c0100000000000000000000000000000000000000000000000000000000028152600401808273ffffffffffffffffffffffffffffffffffffffff1673ffffffffffffffffffffffffffffffffffffffff168152602001915050600060405180830381600087803b158015612ae857600080fd5b505af1158015612afc573d6000803e3d6000fd5b505050506040513d6000823e3d601f19601f820116820180604052506020811015612b2657600080fd5b810190808051640100000000811115612b3e57600080fd5b82810190506020810184811115612b5457600080fd5b8151856001820283011164010000000082111715612b7157600080fd5b50509291905050506040516020018082805190602001908083835b602083101515612bb15780518252602082019150602081019050602083039250612b8c565b6001836020036101000a0380198251168184511680821785525050505050509050019150506040516020818303038152906040526040518082805190602001908083835b602083101515612c1a5780518252602082019150602081019050602083039250612bf5565b6001836020036101000a038019825116818451168082178552505050505050905001915050604051809103902060001916141515612c5757600080fd5b806040516020018082805190602001908083835b602083101515612c905780518252602082019150602081019050602083039250612c6b565b6001836020036101000a0380198251168184511680821785525050505050509050019150506040516020818303038152906040526040518082805190602001908083835b602083101515612cf95780518252602082019150602081019050602083039250612cd4565b6001836020036101000a0380198251168184511680821785525050505050509050019150506040518091039020600019166000809054906101000a900473ffffffffffffffffffffffffffffffffffffffff1673ffffffffffffffffffffffffffffffffffffffff16634d6b5e00846040518263ffffffff167c0100000000000000000000000000000000000000000000000000000000028152600401808273ffffffffffffffffffffffffffffffffffffffff1673ffffffffffffffffffffffffffffffffffffffff168152602001915050600060405180830381600087803b158015612de657600080fd5b505af1158015612dfa573d6000803e3d6000fd5b505050506040513d6000823e3d601f19601f820116820180604052506020811015612e2457600080fd5b810190808051640100000000811115612e3c57600080fd5b82810190506020810184811115612e5257600080fd5b8151856001820283011164010000000082111715612e6f57600080fd5b50509291905050506040516020018082805190602001908083835b602083101515612eaf5780518252602082019150602081019050602083039250612e8a565b6001836020036101000a0380198251168184511680821785525050505050509050019150506040516020818303038152906040526040518082805190602001908083835b602083101515612f185780518252602082019150602081019050602083039250612ef3565b6001836020036101000a038019825116818451168082178552505050505050905001915050604051809103902060001916141515612f5557600080fd5b8560216000019080519060200190612f6e9291906153c1565b508460216002019080519060200190612f889291906153c1565b50836021600101819055506021600760008973ffffffffffffffffffffffffffffffffffffffff1673ffffffffffffffffffffffffffffffffffffffff16815260200190815260200160002060008201816000019080546001816001161561010002031660029004612ffb929190615441565b50600182015481600101556002820181600201908054600181600116156101000203166002900461302d929190615441565b509050506000809054906101000a900473ffffffffffffffffffffffffffffffffffffffff1673ffffffffffffffffffffffffffffffffffffffff16634bfe0146886040518263ffffffff167c0100000000000000000000000000000000000000000000000000000000028152600401808273ffffffffffffffffffffffffffffffffffffffff1673ffffffffffffffffffffffffffffffffffffffff16815260200180602001828103825260048152602001807f444f4e450000000000000000000000000000000000000000000000000000000081525060200192505050600060405180830381600087803b15801561312657600080fd5b505af115801561313a573d6000803e3d6000fd5b505050508673ffffffffffffffffffffffffffffffffffffffff163373ffffffffffffffffffffffffffffffffffffffff167fe5778724654be34ad6e69ca390ff330a32fa47dd6e66bbe2cc6068c9dff90c0f60405160405180910390a3600192505050949350505050565b60608060006131b36154ff565b600760008673ffffffffffffffffffffffffffffffffffffffff1673ffffffffffffffffffffffffffffffffffffffff16815260200190815260200160002060606040519081016040529081600082018054600181600116156101000203166002900480601f0160208091040260200160405190810160405280929190818152602001828054600181600116156101000203166002900480156132975780601f1061326c57610100808354040283529160200191613297565b820191906000526020600020905b81548152906001019060200180831161327a57829003601f168201915b5050505050815260200160018201548152602001600282018054600181600116156101000203166002900480601f0160208091040260200160405190810160405280929190818152602001828054600181600116156101000203166002900480156133435780601f1061331857610100808354040283529160200191613343565b820191906000526020600020905b81548152906001019060200180831161332657829003601f168201915b5050505050815250509050806000015181604001518260200151829250819150935093509350509193909250565b6000876040805190810160405280600881526020017f4558504f52544552000000000000000000000000000000000000000000000000815250806040516020018082805190602001908083835b6020831015156133e357805182526020820191506020810190506020830392506133be565b6001836020036101000a0380198251168184511680821785525050505050509050019150506040516020818303038152906040526040518082805190602001908083835b60208310151561344c5780518252602082019150602081019050602083039250613427565b6001836020036101000a038019825116818451168082178552505050505050905001915050604051809103902060001916600160009054906101000a900473ffffffffffffffffffffffffffffffffffffffff1673ffffffffffffffffffffffffffffffffffffffff166327820851336040518263ffffffff167c0100000000000000000000000000000000000000000000000000000000028152600401808273ffffffffffffffffffffffffffffffffffffffff1673ffffffffffffffffffffffffffffffffffffffff168152602001915050600060405180830381600087803b15801561353a57600080fd5b505af115801561354e573d6000803e3d6000fd5b505050506040513d6000823e3d601f19601f82011682018060405250602081101561357857600080fd5b81019080805164010000000081111561359057600080fd5b828101905060208101848111156135a657600080fd5b81518560018202830111640100000000821117156135c357600080fd5b50509291905050506040516020018082805190602001908083835b60208310151561360357805182526020820191506020810190506020830392506135de565b6001836020036101000a0380198251168184511680821785525050505050509050019150506040516020818303038152906040526040518082805190602001908083835b60208310151561366c5780518252602082019150602081019050602083039250613647565b6001836020036101000a0380198251168184511680821785525050505050509050019150506040518091039020600019161415156136a957600080fd5b806040516020018082805190602001908083835b6020831015156136e257805182526020820191506020810190506020830392506136bd565b6001836020036101000a0380198251168184511680821785525050505050509050019150506040516020818303038152906040526040518082805190602001908083835b60208310151561374b5780518252602082019150602081019050602083039250613726565b6001836020036101000a0380198251168184511680821785525050505050509050019150506040518091039020600019166000809054906101000a900473ffffffffffffffffffffffffffffffffffffffff1673ffffffffffffffffffffffffffffffffffffffff16634d6b5e00846040518263ffffffff167c0100000000000000000000000000000000000000000000000000000000028152600401808273ffffffffffffffffffffffffffffffffffffffff1673ffffffffffffffffffffffffffffffffffffffff168152602001915050600060405180830381600087803b15801561383857600080fd5b505af115801561384c573d6000803e3d6000fd5b505050506040513d6000823e3d601f19601f82011682018060405250602081101561387657600080fd5b81019080805164010000000081111561388e57600080fd5b828101905060208101848111156138a457600080fd5b81518560018202830111640100000000821117156138c157600080fd5b50509291905050506040516020018082805190602001908083835b60208310151561390157805182526020820191506020810190506020830392506138dc565b6001836020036101000a0380198251168184511680821785525050505050509050019150506040516020818303038152906040526040518082805190602001908083835b60208310151561396a5780518252602082019150602081019050602083039250613945565b6001836020036101000a0380198251168184511680821785525050505050509050019150506040518091039020600019161415156139a757600080fd5b88600860000190805190602001906139c09291906153c1565b5087600860010190805190602001906139da9291906153c1565b5086600860020190805190602001906139f49291906153c1565b508560086003019080519060200190613a0e9291906153c1565b5084600860040181905550836008600501819055506008600360008c73ffffffffffffffffffffffffffffffffffffffff1673ffffffffffffffffffffffffffffffffffffffff16815260200190815260200160002060008201816000019080546001816001161561010002031660029004613a8b929190615441565b5060018201816001019080546001816001161561010002031660029004613ab3929190615441565b5060028201816002019080546001816001161561010002031660029004613adb929190615441565b5060038201816003019080546001816001161561010002031660029004613b03929190615441565b5060048201548160040155600582015481600501559050506000809054906101000a900473ffffffffffffffffffffffffffffffffffffffff1673ffffffffffffffffffffffffffffffffffffffff16634bfe01468b6040518263ffffffff167c0100000000000000000000000000000000000000000000000000000000028152600401808273ffffffffffffffffffffffffffffffffffffffff1673ffffffffffffffffffffffffffffffffffffffff16815260200180602001828103825260078152602001807f434152524945520000000000000000000000000000000000000000000000000081525060200192505050600060405180830381600087803b158015613c1057600080fd5b505af1158015613c24573d6000803e3d6000fd5b505050508973ffffffffffffffffffffffffffffffffffffffff163373ffffffffffffffffffffffffffffffffffffffff167feaba9e3c271bb82a9fd28bf677c9ee9b7a261f8ac7340051834c654f445e7db860405160405180910390a3600192505050979650505050505050565b6000876040805190810160405280600781526020017f4341525249455200000000000000000000000000000000000000000000000000815250806040516020018082805190602001908083835b602083101515613d055780518252602082019150602081019050602083039250613ce0565b6001836020036101000a0380198251168184511680821785525050505050509050019150506040516020818303038152906040526040518082805190602001908083835b602083101515613d6e5780518252602082019150602081019050602083039250613d49565b6001836020036101000a038019825116818451168082178552505050505050905001915050604051809103902060001916600160009054906101000a900473ffffffffffffffffffffffffffffffffffffffff1673ffffffffffffffffffffffffffffffffffffffff166327820851336040518263ffffffff167c0100000000000000000000000000000000000000000000000000000000028152600401808273ffffffffffffffffffffffffffffffffffffffff1673ffffffffffffffffffffffffffffffffffffffff168152602001915050600060405180830381600087803b158015613e5c57600080fd5b505af1158015613e70573d6000803e3d6000fd5b505050506040513d6000823e3d601f19601f820116820180604052506020811015613e9a57600080fd5b810190808051640100000000811115613eb257600080fd5b82810190506020810184811115613ec857600080fd5b8151856001820283011164010000000082111715613ee557600080fd5b50509291905050506040516020018082805190602001908083835b602083101515613f255780518252602082019150602081019050602083039250613f00565b6001836020036101000a0380198251168184511680821785525050505050509050019150506040516020818303038152906040526040518082805190602001908083835b602083101515613f8e5780518252602082019150602081019050602083039250613f69565b6001836020036101000a038019825116818451168082178552505050505050905001915050604051809103902060001916141515613fcb57600080fd5b806040516020018082805190602001908083835b6020831015156140045780518252602082019150602081019050602083039250613fdf565b6001836020036101000a0380198251168184511680821785525050505050509050019150506040516020818303038152906040526040518082805190602001908083835b60208310151561406d5780518252602082019150602081019050602083039250614048565b6001836020036101000a0380198251168184511680821785525050505050509050019150506040518091039020600019166000809054906101000a900473ffffffffffffffffffffffffffffffffffffffff1673ffffffffffffffffffffffffffffffffffffffff16634d6b5e00846040518263ffffffff167c0100000000000000000000000000000000000000000000000000000000028152600401808273ffffffffffffffffffffffffffffffffffffffff1673ffffffffffffffffffffffffffffffffffffffff168152602001915050600060405180830381600087803b15801561415a57600080fd5b505af115801561416e573d6000803e3d6000fd5b505050506040513d6000823e3d601f19601f82011682018060405250602081101561419857600080fd5b8101908080516401000000008111156141b057600080fd5b828101905060208101848111156141c657600080fd5b81518560018202830111640100000000821117156141e357600080fd5b50509291905050506040516020018082805190602001908083835b60208310151561422357805182526020820191506020810190506020830392506141fe565b6001836020036101000a0380198251168184511680821785525050505050509050019150506040516020818303038152906040526040518082805190602001908083835b60208310151561428c5780518252602082019150602081019050602083039250614267565b6001836020036101000a0380198251168184511680821785525050505050509050019150506040518091039020600019161415156142c957600080fd5b88600e60000190805190602001906142e29291906153c1565b5087600e60010190805190602001906142fc9291906153c1565b5086600e60020190805190602001906143169291906153c1565b5085600e60030190805190602001906143309291906153c1565b5084600e600401908051906020019061434a9291906153c1565b5083600e60050181905550600e600460008c73ffffffffffffffffffffffffffffffffffffffff1673ffffffffffffffffffffffffffffffffffffffff168152602001908152602001600020600082018160000190805460018160011615610100020316600290046143bd929190615441565b50600182018160010190805460018160011615610100020316600290046143e5929190615441565b506002820181600201908054600181600116156101000203166002900461440d929190615441565b5060038201816003019080546001816001161561010002031660029004614435929190615441565b506004820181600401908054600181600116156101000203166002900461445d929190615441565b50600582015481600501559050506000809054906101000a900473ffffffffffffffffffffffffffffffffffffffff1673ffffffffffffffffffffffffffffffffffffffff16634bfe01468b6040518263ffffffff167c0100000000000000000000000000000000000000000000000000000000028152600401808273ffffffffffffffffffffffffffffffffffffffff1673ffffffffffffffffffffffffffffffffffffffff168152602001806020018281038252600b8152602001807f4449535452494255544f5200000000000000000000000000000000000000000081525060200192505050600060405180830381600087803b15801561456057600080fd5b505af1158015614574573d6000803e3d6000fd5b505050508973ffffffffffffffffffffffffffffffffffffffff163373ffffffffffffffffffffffffffffffffffffffff167f5e43aa1a95cc5e9fd579676cedc2fa1855a4b521f0ceeb3b1bac0c063da6efba60405160405180910390a3600192505050979650505050505050565b6000886040805190810160405280600b81526020017f4449535452494255544f52000000000000000000000000000000000000000000815250806040516020018082805190602001908083835b6020831015156146555780518252602082019150602081019050602083039250614630565b6001836020036101000a0380198251168184511680821785525050505050509050019150506040516020818303038152906040526040518082805190602001908083835b6020831015156146be5780518252602082019150602081019050602083039250614699565b6001836020036101000a038019825116818451168082178552505050505050905001915050604051809103902060001916600160009054906101000a900473ffffffffffffffffffffffffffffffffffffffff1673ffffffffffffffffffffffffffffffffffffffff166327820851336040518263ffffffff167c0100000000000000000000000000000000000000000000000000000000028152600401808273ffffffffffffffffffffffffffffffffffffffff1673ffffffffffffffffffffffffffffffffffffffff168152602001915050600060405180830381600087803b1580156147ac57600080fd5b505af11580156147c0573d6000803e3d6000fd5b505050506040513d6000823e3d601f19601f8201168201806040525060208110156147ea57600080fd5b81019080805164010000000081111561480257600080fd5b8281019050602081018481111561481857600080fd5b815185600182028301116401000000008211171561483557600080fd5b50509291905050506040516020018082805190602001908083835b6020831015156148755780518252602082019150602081019050602083039250614850565b6001836020036101000a0380198251168184511680821785525050505050509050019150506040516020818303038152906040526040518082805190602001908083835b6020831015156148de57805182526020820191506020810190506020830392506148b9565b6001836020036101000a03801982511681845116808217855250505050505090500191505060405180910390206000191614151561491b57600080fd5b806040516020018082805190602001908083835b602083101515614954578051825260208201915060208101905060208303925061492f565b6001836020036101000a0380198251168184511680821785525050505050509050019150506040516020818303038152906040526040518082805190602001908083835b6020831015156149bd5780518252602082019150602081019050602083039250614998565b6001836020036101000a0380198251168184511680821785525050505050509050019150506040518091039020600019166000809054906101000a900473ffffffffffffffffffffffffffffffffffffffff1673ffffffffffffffffffffffffffffffffffffffff16634d6b5e00846040518263ffffffff167c0100000000000000000000000000000000000000000000000000000000028152600401808273ffffffffffffffffffffffffffffffffffffffff1673ffffffffffffffffffffffffffffffffffffffff168152602001915050600060405180830381600087803b158015614aaa57600080fd5b505af1158015614abe573d6000803e3d6000fd5b505050506040513d6000823e3d601f19601f820116820180604052506020811015614ae857600080fd5b810190808051640100000000811115614b0057600080fd5b82810190506020810184811115614b1657600080fd5b8151856001820283011164010000000082111715614b3357600080fd5b50509291905050506040516020018082805190602001908083835b602083101515614b735780518252602082019150602081019050602083039250614b4e565b6001836020036101000a0380198251168184511680821785525050505050509050019150506040516020818303038152906040526040518082805190602001908083835b602083101515614bdc5780518252602082019150602081019050602083039250614bb7565b6001836020036101000a038019825116818451168082178552505050505050905001915050604051809103902060001916141515614c1957600080fd5b8960146000019080519060200190614c329291906153c1565b508860146001019080519060200190614c4c9291906153c1565b508760146002019080519060200190614c669291906153c1565b508660146003019080519060200190614c809291906153c1565b508560146004019080519060200190614c9a9291906153c1565b508460146005019080519060200190614cb49291906153c1565b50836014600601819055506014600560008d73ffffffffffffffffffffffffffffffffffffffff1673ffffffffffffffffffffffffffffffffffffffff16815260200190815260200160002060008201816000019080546001816001161561010002031660029004614d27929190615441565b5060018201816001019080546001816001161561010002031660029004614d4f929190615441565b5060028201816002019080546001816001161561010002031660029004614d77929190615441565b5060038201816003019080546001816001161561010002031660029004614d9f929190615441565b5060048201816004019080546001816001161561010002031660029004614dc7929190615441565b5060058201816005019080546001816001161561010002031660029004614def929190615441565b50600682015481600601559050506000809054906101000a900473ffffffffffffffffffffffffffffffffffffffff1673ffffffffffffffffffffffffffffffffffffffff16634bfe01468c6040518263ffffffff167c0100000000000000000000000000000000000000000000000000000000028152600401808273ffffffffffffffffffffffffffffffffffffffff1673ffffffffffffffffffffffffffffffffffffffff16815260200180602001828103825260098152602001807f50524f434553534f52000000000000000000000000000000000000000000000081525060200192505050600060405180830381600087803b158015614ef257600080fd5b505af1158015614f06573d6000803e3d6000fd5b505050508a73ffffffffffffffffffffffffffffffffffffffff163373ffffffffffffffffffffffffffffffffffffffff167fd5f77c98a37b9ca3a686659095a8956e7279e67c5b77ac4b38e77108f316e7ed60405160405180910390a360019250505098975050505050505050565b60608060608060606000614f88615521565b600660008973ffffffffffffffffffffffffffffffffffffffff1673ffffffffffffffffffffffffffffffffffffffff16815260200190815260200160002060c06040519081016040529081600082018054600181600116156101000203166002900480601f01602080910402602001604051908101604052809291908181526020018280546001816001161561010002031660029004801561506c5780601f106150415761010080835404028352916020019161506c565b820191906000526020600020905b81548152906001019060200180831161504f57829003601f168201915b50505050508152602001600182018054600181600116156101000203166002900480601f01602080910402602001604051908101604052809291908181526020018280546001816001161561010002031660029004801561510e5780601f106150e35761010080835404028352916020019161510e565b820191906000526020600020905b8154815290600101906020018083116150f157829003601f168201915b50505050508152602001600282018054600181600116156101000203166002900480601f0160208091040260200160405190810160405280929190818152602001828054600181600116156101000203166002900480156151b05780601f10615185576101008083540402835291602001916151b0565b820191906000526020600020905b81548152906001019060200180831161519357829003601f168201915b50505050508152602001600382018054600181600116156101000203166002900480601f0160208091040260200160405190810160405280929190818152602001828054600181600116156101000203166002900480156152525780601f1061522757610100808354040283529160200191615252565b820191906000526020600020905b81548152906001019060200180831161523557829003601f168201915b50505050508152602001600482018054600181600116156101000203166002900480601f0160208091040260200160405190810160405280929190818152602001828054600181600116156101000203166002900480156152f45780601f106152c9576101008083540402835291602001916152f4565b820191906000526020600020905b8154815290600101906020018083116152d757829003601f168201915b505050505081526020016005820154815250509050806000015181602001518260400151836060015184608001518560a001518595508494508393508292508191509650965096509650965096505091939550919395565b60c0604051908101604052806060815260200160608152602001606081526020016060815260200160008152602001600081525090565b60e060405190810160405280606081526020016060815260200160608152602001606081526020016060815260200160608152602001600081525090565b828054600181600116156101000203166002900490600052602060002090601f016020900481019282601f1061540257805160ff1916838001178555615430565b82800160010185558215615430579182015b8281111561542f578251825591602001919060010190615414565b5b50905061543d9190615558565b5090565b828054600181600116156101000203166002900490600052602060002090601f016020900481019282601f1061547a57805485556154b7565b828001600101855582156154b757600052602060002091601f016020900482015b828111156154b657825482559160010191906001019061549b565b5b5090506154c49190615558565b5090565b60c0604051908101604052806060815260200160608152602001606081526020016060815260200160608152602001600081525090565b6060604051908101604052806060815260200160008152602001606081525090565b60c0604051908101604052806060815260200160608152602001606081526020016060815260200160608152602001600081525090565b61557a91905b8082111561557657600081600090555060010161555e565b5090565b905600a165627a7a72305820dab66e3eafb7f78c91af5b3dad28be923cfad638d5af50e61adbbafa8b7f61bc0029",
  "source": "pragma solidity ^0.4.24;\nimport \"./FoodSupplyChain.sol\";\nimport \"./SupplyChainUser.sol\";\n\ncontract FoodSupplyChainShipingLogistic{\n    \n    FoodSupplyChain foodSupplyChain;\n    SupplyChainUser supplyChainUser;\n    address public lastAccess;\n    \n    constructor(address _foodSupplyChain,address _supplyChainUser) public{\n        foodSupplyChain = FoodSupplyChain(_foodSupplyChain);\n        supplyChainUser = SupplyChainUser(_supplyChainUser);\n    } \n    \n    event DoneExporting(address indexed user, address indexed batchNo);\n    event DoneCarrying(address indexed user, address indexed batchNo);\n    event DoneDistribution(address indexed user, address indexed batchNo);\n    event DoneProcessing(address indexed user, address indexed batchNo);\n    event DoneRetailing(address indexed user, address indexed batchNo);\n    \n    modifier isValidPerformer(address batchNo, string role) {\n        require(keccak256(abi.encodePacked(supplyChainUser.getUserRole(msg.sender))) == keccak256(abi.encodePacked(role)));\n        require(keccak256(abi.encodePacked(foodSupplyChain.getNextAction(batchNo))) == keccak256(abi.encodePacked(role)));\n        _;\n    }\n    \n    struct exporter {\n        string exporterDetail;\n        string packageDetail;\n        string destinationAddress;\n        string shipID;\n        uint256 quantity;\n        uint256 loadingDateTime;\n    }\n    \n    struct carrier{\n        string carrierName;\n        string carrierNo;\n        string shipmentID;\n        string maintainedTemperature;\n        string maintainedHumidity;\n        uint256 shipmentDateTime;\n    }\n    \n    struct distributor{\n        string certificateID;\n        string warehouseName;\n        string warehouseAddress;\n        string storageTemperature;\n        string storageHumidity;\n        string packagingDetail;\n        uint256 quantity;\n    }\n    \n    struct processor {\n        string processorName;\n        string temperature;\n        string internalBatchNo;\n        string packageName;\n        string packageAddress;\n        uint256 processingDateTime;\n    }\n    \n    struct retailer {\n        string packageID;\n        uint256 expiryDate;\n        string temperature;\n    }\n    \n    mapping (address => exporter) batchExporter;\n    mapping (address => carrier) batchCarrier;\n    mapping (address => distributor) batchDistributor;\n    mapping (address => processor) batchProcessor;\n    mapping (address => retailer) batchRetailer;\n    \n    exporter exporterData;\n    carrier carrierData;\n    distributor distributorData;\n    processor processorData; \n    retailer retailerData;\n    \n     /*get Exporter data*/\n    function getExporterData(address batchNo) public view returns(string exporterDetail,\n                                                            string packageDetail,\n                                                            string destinationAddress,\n                                                            string shipID,\n                                                            uint256 quantity,\n                                                            uint256 loadingDateTime){\n        \n        exporter memory tmpData = batchExporter[batchNo];\n        \n        \n        return (tmpData.exporterDetail, \n                tmpData.packageDetail, \n                tmpData.destinationAddress, \n                tmpData.shipID, \n                tmpData.quantity, \n                tmpData.loadingDateTime);\n    }\n\n    \n    /* perform Export */\n    function updateExporterData(address _batchNo,\n                                string _exporterDetail,\n                                string _packageDetail,\n                                string _destinationAddress,\n                                string _shipID,\n                                uint256 _quantity,\n                                uint256 _loadingDateTime) \n                                public isValidPerformer(_batchNo,'EXPORTER') returns(bool) {\n                                    \n        exporterData.exporterDetail = _exporterDetail;\n        exporterData.packageDetail = _packageDetail;\n        exporterData.destinationAddress = _destinationAddress;\n        exporterData.shipID = _shipID;\n        exporterData.quantity = _quantity;\n        exporterData.loadingDateTime = _loadingDateTime;\n        \n        batchExporter[_batchNo] = exporterData;\n        \n        foodSupplyChain.setNextAction(_batchNo,'CARRIER');\n       \n        emit DoneExporting(msg.sender, _batchNo);\n        return true;\n    }\n    \n    /*get Carrier data*/\n    function getCarrierData(address batchNo) public view returns(string carrierName,\n                                                           string carrierNo,\n                                                           string shipmentID,\n                                                           string maintainedTemperature,\n                                                           string maintainedHumidity,\n                                                           uint256 shipmentDateTime){\n        \n        carrier memory tmpData = batchCarrier[batchNo];\n        \n        \n        return (tmpData.carrierName,\n                tmpData.carrierNo,\n                tmpData.shipmentID, \n                tmpData.maintainedTemperature, \n                tmpData.maintainedHumidity, \n                tmpData.shipmentDateTime);\n        \n    }\n    \n    /* perform Carrier */\n    function updateCarrierData(address _batchNo,\n                              string _carrierName,\n                              string _carrierNo,    \n                              string _shipmentID,\n                              string _maintainedTemperature,\n                              string _maintainedHumidity,\n                              uint256 _shipmentDateTime) \n                                public isValidPerformer(_batchNo,'CARRIER') returns(bool) {\n                                    \n        carrierData.carrierName = _carrierName;\n        carrierData.carrierNo = _carrierNo;\n        carrierData.shipmentID = _shipmentID;\n        carrierData.maintainedTemperature = _maintainedTemperature;\n        carrierData.maintainedHumidity = _maintainedHumidity;\n        carrierData.shipmentDateTime = _shipmentDateTime;\n        \n        batchCarrier[_batchNo] = carrierData;\n        \n        foodSupplyChain.setNextAction(_batchNo,'DISTRIBUTOR'); \n        \n        emit DoneCarrying(msg.sender, _batchNo);\n        return true;\n    }\n\n    /* get Distributor */\n    function getDistributorData(address batchNo) public view returns (string certificateID,\n                                                                string warehouseName,\n                                                                string warehouseAddress,\n                                                                string storageTemperature,\n                                                                string storageHumidity,\n                                                                string packagingDetail,\n                                                                uint256 quantity) {\n        distributor memory tmpData = batchDistributor[batchNo];\n        \n        \n        return (tmpData.certificateID, \n                tmpData.warehouseName, \n                tmpData.warehouseAddress,\n                tmpData.storageTemperature,\n                tmpData.storageHumidity,\n                tmpData.packagingDetail,\n                tmpData.quantity);\n \n    }\n    \n    /* perform Distribution */\n    function updateDistributorData(address _batchNo,\n                                    string _certificateID,\n                                    string _warehouseName,\n                                    string _warehouseAddress,\n                                    string _storageTemperature,\n                                    string _storageHumidity,\n                                    string _packagingDetail,\n                                    uint256 _quantity) public isValidPerformer(_batchNo,'DISTRIBUTOR') returns(bool) {\n                                    \n        distributorData.certificateID = _certificateID;\n        distributorData.warehouseName = _warehouseName;\n        distributorData.warehouseAddress = _warehouseAddress;\n        distributorData.storageTemperature = _storageTemperature;\n        distributorData.storageHumidity = _storageHumidity;\n        distributorData.packagingDetail = _packagingDetail;\n        distributorData.quantity = _quantity;\n        \n        batchDistributor[_batchNo] = distributorData;\n        \n        foodSupplyChain.setNextAction(_batchNo,'PROCESSOR'); \n        \n        emit DoneDistribution(msg.sender, _batchNo);\n        return true;\n    }\n    \n    /* get Processor */\n    function getProcessorData(address batchNo) public view returns (string processorName, \n                                                                string temperature,\n                                                                string internalBatchNo,\n                                                                string packageName,\n                                                                string packageAddress,\n                                                                uint256 processingDateTime) {\n        processor memory tmpData = batchProcessor[batchNo];\n        \n        \n        return (\n                tmpData.processorName, \n                tmpData.temperature, \n                tmpData.internalBatchNo, \n                tmpData.packageName,\n                tmpData.packageAddress,\n                tmpData.processingDateTime);\n \n    }\n    \n     /* perform Processing */\n    function updateProcessorData(address _batchNo,\n                                 string _processorName, \n                                 string _temperature,\n                                 string _internalBatchNo,\n                                 string _packageName,\n                                 string _packageAddress,\n                                 uint256 _processingDateTime) public isValidPerformer(_batchNo,'PROCESSOR') returns(bool) {\n                                    \n        processorData.processorName = _processorName;\n        processorData.temperature = _temperature;\n        processorData.internalBatchNo = _internalBatchNo;\n        processorData.packageName = _packageName;\n        processorData.packageAddress = _packageAddress;\n        processorData.processingDateTime = _processingDateTime;\n        \n        batchProcessor[_batchNo] = processorData;\n        \n        foodSupplyChain.setNextAction(_batchNo,'RETAILER');   \n        \n        emit DoneProcessing(msg.sender, _batchNo);\n        return true;\n    }\n    \n    /*get Retailer data*/\n    function getRetailerData(address batchNo) public view returns(string packageID, \n                                                              string temperature,\n                                                              uint256 expiryDate){\n\n        retailer memory tmpData = batchRetailer[batchNo];\n        \n        \n        return (\n                tmpData.packageID, \n                tmpData.temperature, \n                tmpData.expiryDate);\n                \n        \n    }\n    \n    /* perform Retailer */\n    function updateRetailerData(address _batchNo,\n                                 string _packageID,\n                                 string _temperature,\n                                 uint256 _expiryDate) public isValidPerformer(_batchNo,'RETAILER') returns(bool) {\n                                    \n        retailerData.packageID = _packageID;\n        retailerData.temperature = _temperature;\n        retailerData.expiryDate = _expiryDate;\n        \n        batchRetailer[_batchNo] = retailerData;\n        \n        foodSupplyChain.setNextAction(_batchNo,'DONE');  \n        \n        emit DoneRetailing(msg.sender, _batchNo);\n        return true;\n    }\n}",
  "sourcePath": "/opt/lampp/htdocs/web3/food_supply_chain_contract/contracts/FoodSupplyChainShipingLogistic.sol",
  "compiler": {
    "name": "solc",
    "version": "0.4.24+commit.e67f0147.Emscripten.clang"
  },
  "schemaVersion": "2.0.1",
  "updatedAt": "2018-09-17T08:58:29.952Z"
}