{
  "contractName": "FoodSupplyChain",
  "abi": [
    {
      "constant": false,
      "inputs": [],
      "name": "renounceOwnership",
      "outputs": [],
      "payable": false,
      "stateMutability": "nonpayable",
      "type": "function"
    },
    {
      "constant": true,
      "inputs": [],
      "name": "owner",
      "outputs": [
        {
          "name": "",
          "type": "address"
        }
      ],
      "payable": false,
      "stateMutability": "view",
      "type": "function"
    },
    {
      "constant": false,
      "inputs": [
        {
          "name": "newOwner",
          "type": "address"
        }
      ],
      "name": "transferOwnership",
      "outputs": [],
      "payable": false,
      "stateMutability": "nonpayable",
      "type": "function"
    },
    {
      "inputs": [
        {
          "name": "_supplyChainUser",
          "type": "address"
        }
      ],
      "payable": false,
      "stateMutability": "nonpayable",
      "type": "constructor"
    },
    {
      "anonymous": false,
      "inputs": [
        {
          "indexed": false,
          "name": "caller",
          "type": "address"
        }
      ],
      "name": "AuthorizedCaller",
      "type": "event"
    },
    {
      "anonymous": false,
      "inputs": [
        {
          "indexed": false,
          "name": "caller",
          "type": "address"
        }
      ],
      "name": "DeAuthorizedCaller",
      "type": "event"
    },
    {
      "anonymous": false,
      "inputs": [
        {
          "indexed": true,
          "name": "user",
          "type": "address"
        },
        {
          "indexed": true,
          "name": "batchNo",
          "type": "address"
        }
      ],
      "name": "PerformCultivation",
      "type": "event"
    },
    {
      "anonymous": false,
      "inputs": [
        {
          "indexed": true,
          "name": "user",
          "type": "address"
        },
        {
          "indexed": true,
          "name": "batchNo",
          "type": "address"
        }
      ],
      "name": "DoneInspection",
      "type": "event"
    },
    {
      "anonymous": false,
      "inputs": [
        {
          "indexed": true,
          "name": "user",
          "type": "address"
        },
        {
          "indexed": true,
          "name": "batchNo",
          "type": "address"
        }
      ],
      "name": "DoneProducing",
      "type": "event"
    },
    {
      "anonymous": false,
      "inputs": [
        {
          "indexed": true,
          "name": "previousOwner",
          "type": "address"
        }
      ],
      "name": "OwnershipRenounced",
      "type": "event"
    },
    {
      "anonymous": false,
      "inputs": [
        {
          "indexed": true,
          "name": "previousOwner",
          "type": "address"
        },
        {
          "indexed": true,
          "name": "newOwner",
          "type": "address"
        }
      ],
      "name": "OwnershipTransferred",
      "type": "event"
    },
    {
      "constant": true,
      "inputs": [
        {
          "name": "_batchNo",
          "type": "address"
        }
      ],
      "name": "getNextAction",
      "outputs": [
        {
          "name": "action",
          "type": "string"
        }
      ],
      "payable": false,
      "stateMutability": "view",
      "type": "function"
    },
    {
      "constant": false,
      "inputs": [
        {
          "name": "_batchNo",
          "type": "address"
        },
        {
          "name": "_action",
          "type": "string"
        }
      ],
      "name": "setNextAction",
      "outputs": [],
      "payable": false,
      "stateMutability": "nonpayable",
      "type": "function"
    },
    {
      "constant": true,
      "inputs": [
        {
          "name": "_batchNo",
          "type": "address"
        }
      ],
      "name": "getBasicDetails",
      "outputs": [
        {
          "name": "registrationNo",
          "type": "string"
        },
        {
          "name": "foodName",
          "type": "string"
        },
        {
          "name": "farmerName",
          "type": "string"
        },
        {
          "name": "farmAddress",
          "type": "string"
        },
        {
          "name": "exporterName",
          "type": "string"
        },
        {
          "name": "carrierName",
          "type": "string"
        }
      ],
      "payable": false,
      "stateMutability": "view",
      "type": "function"
    },
    {
      "constant": false,
      "inputs": [
        {
          "name": "_registrationNo",
          "type": "string"
        },
        {
          "name": "_foodName",
          "type": "string"
        },
        {
          "name": "_farmerName",
          "type": "string"
        },
        {
          "name": "_farmAddress",
          "type": "string"
        },
        {
          "name": "_exporterName",
          "type": "string"
        },
        {
          "name": "_carrierName",
          "type": "string"
        }
      ],
      "name": "addBasicDetails",
      "outputs": [
        {
          "name": "",
          "type": "bool"
        }
      ],
      "payable": false,
      "stateMutability": "nonpayable",
      "type": "function"
    },
    {
      "constant": true,
      "inputs": [
        {
          "name": "_batchNo",
          "type": "address"
        }
      ],
      "name": "getFarmInspectorData",
      "outputs": [
        {
          "name": "soilType",
          "type": "string"
        },
        {
          "name": "typeOfSeed",
          "type": "string"
        },
        {
          "name": "fertilizerUsed",
          "type": "string"
        },
        {
          "name": "processName",
          "type": "string"
        },
        {
          "name": "certificateNumber",
          "type": "string"
        }
      ],
      "payable": false,
      "stateMutability": "view",
      "type": "function"
    },
    {
      "constant": false,
      "inputs": [
        {
          "name": "_batchNo",
          "type": "address"
        },
        {
          "name": "_soilType",
          "type": "string"
        },
        {
          "name": "_typeOfSeed",
          "type": "string"
        },
        {
          "name": "_fertilizerUsed",
          "type": "string"
        },
        {
          "name": "_processName",
          "type": "string"
        },
        {
          "name": "_certificateNumber",
          "type": "string"
        }
      ],
      "name": "updateFarmInspectorData",
      "outputs": [
        {
          "name": "",
          "type": "bool"
        }
      ],
      "payable": false,
      "stateMutability": "nonpayable",
      "type": "function"
    },
    {
      "constant": true,
      "inputs": [
        {
          "name": "batchNo",
          "type": "address"
        }
      ],
      "name": "getProducerData",
      "outputs": [
        {
          "name": "cropVariety",
          "type": "string"
        },
        {
          "name": "temperatureUsed",
          "type": "string"
        },
        {
          "name": "humidity",
          "type": "string"
        }
      ],
      "payable": false,
      "stateMutability": "view",
      "type": "function"
    },
    {
      "constant": false,
      "inputs": [
        {
          "name": "_batchNo",
          "type": "address"
        },
        {
          "name": "_cropVariety",
          "type": "string"
        },
        {
          "name": "_temperatureUsed",
          "type": "string"
        },
        {
          "name": "_humidity",
          "type": "string"
        }
      ],
      "name": "updateProducerData",
      "outputs": [
        {
          "name": "",
          "type": "bool"
        }
      ],
      "payable": false,
      "stateMutability": "nonpayable",
      "type": "function"
    }
  ],
  "bytecode": "0x608060405234801561001057600080fd5b5060405160208061318b83398101806040528101908080519060200190929190505050336000806101000a81548173ffffffffffffffffffffffffffffffffffffffff021916908373ffffffffffffffffffffffffffffffffffffffff16021790555080600160006101000a81548173ffffffffffffffffffffffffffffffffffffffff021916908373ffffffffffffffffffffffffffffffffffffffff160217905550506130c7806100c46000396000f3006080604052600436106100af576000357c0100000000000000000000000000000000000000000000000000000000900463ffffffff16806315ffa3ff146100b45780634bfe0146146101e15780634d6b5e001461026a578063715018a6146103265780637f89e94b1461033d578063845894d4146105a95780638da5cb5b1461073d578063a9b63c8414610794578063cd33490f1461094d578063f2997d7614610b2c578063f2fde38b14610e04575b600080fd5b3480156100c057600080fd5b506101c7600480360381019080803573ffffffffffffffffffffffffffffffffffffffff169060200190929190803590602001908201803590602001908080601f0160208091040260200160405190810160405280939291908181526020018383808284378201915050505050509192919290803590602001908201803590602001908080601f0160208091040260200160405190810160405280939291908181526020018383808284378201915050505050509192919290803590602001908201803590602001908080601f0160208091040260200160405190810160405280939291908181526020018383808284378201915050505050509192919290505050610e47565b604051808215151515815260200191505060405180910390f35b3480156101ed57600080fd5b50610268600480360381019080803573ffffffffffffffffffffffffffffffffffffffff169060200190929190803590602001908201803590602001908080601f0160208091040260200160405190810160405280939291908181526020018383808284378201915050505050509192919290505050611534565b005b34801561027657600080fd5b506102ab600480360381019080803573ffffffffffffffffffffffffffffffffffffffff16906020019092919050505061158c565b6040518080602001828103825283818151815260200191508051906020019080838360005b838110156102eb5780820151818401526020810190506102d0565b50505050905090810190601f1680156103185780820380516001836020036101000a031916815260200191505b509250505060405180910390f35b34801561033257600080fd5b5061033b61166d565b005b34801561034957600080fd5b5061037e600480360381019080803573ffffffffffffffffffffffffffffffffffffffff16906020019092919050505061176f565b60405180806020018060200180602001806020018060200186810386528b818151815260200191508051906020019080838360005b838110156103ce5780820151818401526020810190506103b3565b50505050905090810190601f1680156103fb5780820380516001836020036101000a031916815260200191505b5086810385528a818151815260200191508051906020019080838360005b83811015610434578082015181840152602081019050610419565b50505050905090810190601f1680156104615780820380516001836020036101000a031916815260200191505b50868103845289818151815260200191508051906020019080838360005b8381101561049a57808201518184015260208101905061047f565b50505050905090810190601f1680156104c75780820380516001836020036101000a031916815260200191505b50868103835288818151815260200191508051906020019080838360005b838110156105005780820151818401526020810190506104e5565b50505050905090810190601f16801561052d5780820380516001836020036101000a031916815260200191505b50868103825287818151815260200191508051906020019080838360005b8381101561056657808201518184015260208101905061054b565b50505050905090810190601f1680156105935780820380516001836020036101000a031916815260200191505b509a505050505050505050505060405180910390f35b3480156105b557600080fd5b506105ea600480360381019080803573ffffffffffffffffffffffffffffffffffffffff169060200190929190505050611b32565b60405180806020018060200180602001848103845287818151815260200191508051906020019080838360005b83811015610632578082015181840152602081019050610617565b50505050905090810190601f16801561065f5780820380516001836020036101000a031916815260200191505b50848103835286818151815260200191508051906020019080838360005b8381101561069857808201518184015260208101905061067d565b50505050905090810190601f1680156106c55780820380516001836020036101000a031916815260200191505b50848103825285818151815260200191508051906020019080838360005b838110156106fe5780820151818401526020810190506106e3565b50505050905090810190601f16801561072b5780820380516001836020036101000a031916815260200191505b50965050505050505060405180910390f35b34801561074957600080fd5b50610752611d98565b604051808273ffffffffffffffffffffffffffffffffffffffff1673ffffffffffffffffffffffffffffffffffffffff16815260200191505060405180910390f35b3480156107a057600080fd5b50610933600480360381019080803573ffffffffffffffffffffffffffffffffffffffff169060200190929190803590602001908201803590602001908080601f0160208091040260200160405190810160405280939291908181526020018383808284378201915050505050509192919290803590602001908201803590602001908080601f0160208091040260200160405190810160405280939291908181526020018383808284378201915050505050509192919290803590602001908201803590602001908080601f0160208091040260200160405190810160405280939291908181526020018383808284378201915050505050509192919290803590602001908201803590602001908080601f0160208091040260200160405190810160405280939291908181526020018383808284378201915050505050509192919290803590602001908201803590602001908080601f0160208091040260200160405190810160405280939291908181526020018383808284378201915050505050509192919290505050611dbd565b604051808215151515815260200191505060405180910390f35b34801561095957600080fd5b50610b12600480360381019080803590602001908201803590602001908080601f0160208091040260200160405190810160405280939291908181526020018383808284378201915050505050509192919290803590602001908201803590602001908080601f0160208091040260200160405190810160405280939291908181526020018383808284378201915050505050509192919290803590602001908201803590602001908080601f0160208091040260200160405190810160405280939291908181526020018383808284378201915050505050509192919290803590602001908201803590602001908080601f0160208091040260200160405190810160405280939291908181526020018383808284378201915050505050509192919290803590602001908201803590602001908080601f0160208091040260200160405190810160405280939291908181526020018383808284378201915050505050509192919290803590602001908201803590602001908080601f0160208091040260200160405190810160405280939291908181526020018383808284378201915050505050509192919290505050612530565b604051808215151515815260200191505060405180910390f35b348015610b3857600080fd5b50610b6d600480360381019080803573ffffffffffffffffffffffffffffffffffffffff169060200190929190505050612921565b6040518080602001806020018060200180602001806020018060200187810387528d818151815260200191508051906020019080838360005b83811015610bc1578082015181840152602081019050610ba6565b50505050905090810190601f168015610bee5780820380516001836020036101000a031916815260200191505b5087810386528c818151815260200191508051906020019080838360005b83811015610c27578082015181840152602081019050610c0c565b50505050905090810190601f168015610c545780820380516001836020036101000a031916815260200191505b5087810385528b818151815260200191508051906020019080838360005b83811015610c8d578082015181840152602081019050610c72565b50505050905090810190601f168015610cba5780820380516001836020036101000a031916815260200191505b5087810384528a818151815260200191508051906020019080838360005b83811015610cf3578082015181840152602081019050610cd8565b50505050905090810190601f168015610d205780820380516001836020036101000a031916815260200191505b50878103835289818151815260200191508051906020019080838360005b83811015610d59578082015181840152602081019050610d3e565b50505050905090810190601f168015610d865780820380516001836020036101000a031916815260200191505b50878103825288818151815260200191508051906020019080838360005b83811015610dbf578082015181840152602081019050610da4565b50505050905090810190601f168015610dec5780820380516001836020036101000a031916815260200191505b509c5050505050505050505050505060405180910390f35b348015610e1057600080fd5b50610e45600480360381019080803573ffffffffffffffffffffffffffffffffffffffff169060200190929190505050612d91565b005b6000846040805190810160405280600881526020017f50524f4455434552000000000000000000000000000000000000000000000000815250806040516020018082805190602001908083835b602083101515610eb95780518252602082019150602081019050602083039250610e94565b6001836020036101000a0380198251168184511680821785525050505050509050019150506040516020818303038152906040526040518082805190602001908083835b602083101515610f225780518252602082019150602081019050602083039250610efd565b6001836020036101000a038019825116818451168082178552505050505050905001915050604051809103902060001916600160009054906101000a900473ffffffffffffffffffffffffffffffffffffffff1673ffffffffffffffffffffffffffffffffffffffff166327820851336040518263ffffffff167c0100000000000000000000000000000000000000000000000000000000028152600401808273ffffffffffffffffffffffffffffffffffffffff1673ffffffffffffffffffffffffffffffffffffffff168152602001915050600060405180830381600087803b15801561101057600080fd5b505af1158015611024573d6000803e3d6000fd5b505050506040513d6000823e3d601f19601f82011682018060405250602081101561104e57600080fd5b81019080805164010000000081111561106657600080fd5b8281019050602081018481111561107c57600080fd5b815185600182028301116401000000008211171561109957600080fd5b50509291905050506040516020018082805190602001908083835b6020831015156110d957805182526020820191506020810190506020830392506110b4565b6001836020036101000a0380198251168184511680821785525050505050509050019150506040516020818303038152906040526040518082805190602001908083835b602083101515611142578051825260208201915060208101905060208303925061111d565b6001836020036101000a03801982511681845116808217855250505050505090500191505060405180910390206000191614151561117f57600080fd5b806040516020018082805190602001908083835b6020831015156111b85780518252602082019150602081019050602083039250611193565b6001836020036101000a0380198251168184511680821785525050505050509050019150506040516020818303038152906040526040518082805190602001908083835b60208310151561122157805182526020820191506020810190506020830392506111fc565b6001836020036101000a03801982511681845116808217855250505050505090500191505060405180910390206000191661125b8361158c565b6040516020018082805190602001908083835b602083101515611293578051825260208201915060208101905060208303925061126e565b6001836020036101000a0380198251168184511680821785525050505050509050019150506040516020818303038152906040526040518082805190602001908083835b6020831015156112fc57805182526020820191506020810190506020830392506112d7565b6001836020036101000a03801982511681845116808217855250505050505090500191505060405180910390206000191614151561133957600080fd5b8560116000019080519060200190611352929190612ee6565b50846011600101908051906020019061136c929190612ee6565b508360116002019080519060200190611386929190612ee6565b506011600460008973ffffffffffffffffffffffffffffffffffffffff1673ffffffffffffffffffffffffffffffffffffffff168152602001908152602001600020600082018160000190805460018160011615610100020316600290046113ef929190612f66565b5060018201816001019080546001816001161561010002031660029004611417929190612f66565b506002820181600201908054600181600116156101000203166002900461143f929190612f66565b509050506040805190810160405280600881526020017f4558504f52544552000000000000000000000000000000000000000000000000815250600560008973ffffffffffffffffffffffffffffffffffffffff1673ffffffffffffffffffffffffffffffffffffffff16815260200190815260200160002090805190602001906114cb929190612ee6565b508673ffffffffffffffffffffffffffffffffffffffff163373ffffffffffffffffffffffffffffffffffffffff167f7a4a1bdc041e293978736974b769e18ca932bd5812eccc1681e6f2c988b8209160405160405180910390a3600192505050949350505050565b80600560008473ffffffffffffffffffffffffffffffffffffffff1673ffffffffffffffffffffffffffffffffffffffff1681526020019081526020016000209080519060200190611587929190612ee6565b505050565b6060600560008373ffffffffffffffffffffffffffffffffffffffff1673ffffffffffffffffffffffffffffffffffffffff1681526020019081526020016000208054600181600116156101000203166002900480601f0160208091040260200160405190810160405280929190818152602001828054600181600116156101000203166002900480156116615780601f1061163657610100808354040283529160200191611661565b820191906000526020600020905b81548152906001019060200180831161164457829003601f168201915b50505050509050919050565b6000809054906101000a900473ffffffffffffffffffffffffffffffffffffffff1673ffffffffffffffffffffffffffffffffffffffff163373ffffffffffffffffffffffffffffffffffffffff161415156116c857600080fd5b6000809054906101000a900473ffffffffffffffffffffffffffffffffffffffff1673ffffffffffffffffffffffffffffffffffffffff167ff8df31144d9c2f0f6b59d69b8b98abd5459d07f2742c4df920b25aae33c6482060405160405180910390a260008060006101000a81548173ffffffffffffffffffffffffffffffffffffffff021916908373ffffffffffffffffffffffffffffffffffffffff160217905550565b606080606080606061177f612fed565b600360008873ffffffffffffffffffffffffffffffffffffffff1673ffffffffffffffffffffffffffffffffffffffff16815260200190815260200160002060a06040519081016040529081600082018054600181600116156101000203166002900480601f0160208091040260200160405190810160405280929190818152602001828054600181600116156101000203166002900480156118635780601f1061183857610100808354040283529160200191611863565b820191906000526020600020905b81548152906001019060200180831161184657829003601f168201915b50505050508152602001600182018054600181600116156101000203166002900480601f0160208091040260200160405190810160405280929190818152602001828054600181600116156101000203166002900480156119055780601f106118da57610100808354040283529160200191611905565b820191906000526020600020905b8154815290600101906020018083116118e857829003601f168201915b50505050508152602001600282018054600181600116156101000203166002900480601f0160208091040260200160405190810160405280929190818152602001828054600181600116156101000203166002900480156119a75780601f1061197c576101008083540402835291602001916119a7565b820191906000526020600020905b81548152906001019060200180831161198a57829003601f168201915b50505050508152602001600382018054600181600116156101000203166002900480601f016020809104026020016040519081016040528092919081815260200182805460018160011615610100020316600290048015611a495780601f10611a1e57610100808354040283529160200191611a49565b820191906000526020600020905b815481529060010190602001808311611a2c57829003601f168201915b50505050508152602001600482018054600181600116156101000203166002900480601f016020809104026020016040519081016040528092919081815260200182805460018160011615610100020316600290048015611aeb5780601f10611ac057610100808354040283529160200191611aeb565b820191906000526020600020905b815481529060010190602001808311611ace57829003601f168201915b505050505081525050905080600001518160200151826040015183606001518460800151849450839350829250819150809050955095509550955095505091939590929450565b6060806060611b3f61301d565b600460008673ffffffffffffffffffffffffffffffffffffffff1673ffffffffffffffffffffffffffffffffffffffff16815260200190815260200160002060606040519081016040529081600082018054600181600116156101000203166002900480601f016020809104026020016040519081016040528092919081815260200182805460018160011615610100020316600290048015611c235780601f10611bf857610100808354040283529160200191611c23565b820191906000526020600020905b815481529060010190602001808311611c0657829003601f168201915b50505050508152602001600182018054600181600116156101000203166002900480601f016020809104026020016040519081016040528092919081815260200182805460018160011615610100020316600290048015611cc55780601f10611c9a57610100808354040283529160200191611cc5565b820191906000526020600020905b815481529060010190602001808311611ca857829003601f168201915b50505050508152602001600282018054600181600116156101000203166002900480601f016020809104026020016040519081016040528092919081815260200182805460018160011615610100020316600290048015611d675780601f10611d3c57610100808354040283529160200191611d67565b820191906000526020600020905b815481529060010190602001808311611d4a57829003601f168201915b5050505050815250509050806000015181602001518260400151829250819150809050935093509350509193909250565b6000809054906101000a900473ffffffffffffffffffffffffffffffffffffffff1681565b6000866040805190810160405280600f81526020017f4641524d5f494e5350454354494f4e0000000000000000000000000000000000815250806040516020018082805190602001908083835b602083101515611e2f5780518252602082019150602081019050602083039250611e0a565b6001836020036101000a0380198251168184511680821785525050505050509050019150506040516020818303038152906040526040518082805190602001908083835b602083101515611e985780518252602082019150602081019050602083039250611e73565b6001836020036101000a038019825116818451168082178552505050505050905001915050604051809103902060001916600160009054906101000a900473ffffffffffffffffffffffffffffffffffffffff1673ffffffffffffffffffffffffffffffffffffffff166327820851336040518263ffffffff167c0100000000000000000000000000000000000000000000000000000000028152600401808273ffffffffffffffffffffffffffffffffffffffff1673ffffffffffffffffffffffffffffffffffffffff168152602001915050600060405180830381600087803b158015611f8657600080fd5b505af1158015611f9a573d6000803e3d6000fd5b505050506040513d6000823e3d601f19601f820116820180604052506020811015611fc457600080fd5b810190808051640100000000811115611fdc57600080fd5b82810190506020810184811115611ff257600080fd5b815185600182028301116401000000008211171561200f57600080fd5b50509291905050506040516020018082805190602001908083835b60208310151561204f578051825260208201915060208101905060208303925061202a565b6001836020036101000a0380198251168184511680821785525050505050509050019150506040516020818303038152906040526040518082805190602001908083835b6020831015156120b85780518252602082019150602081019050602083039250612093565b6001836020036101000a0380198251168184511680821785525050505050509050019150506040518091039020600019161415156120f557600080fd5b806040516020018082805190602001908083835b60208310151561212e5780518252602082019150602081019050602083039250612109565b6001836020036101000a0380198251168184511680821785525050505050509050019150506040516020818303038152906040526040518082805190602001908083835b6020831015156121975780518252602082019150602081019050602083039250612172565b6001836020036101000a0380198251168184511680821785525050505050509050019150506040518091039020600019166121d18361158c565b6040516020018082805190602001908083835b60208310151561220957805182526020820191506020810190506020830392506121e4565b6001836020036101000a0380198251168184511680821785525050505050509050019150506040516020818303038152906040526040518082805190602001908083835b602083101515612272578051825260208201915060208101905060208303925061224d565b6001836020036101000a0380198251168184511680821785525050505050509050019150506040518091039020600019161415156122af57600080fd5b87600c60000190805190602001906122c8929190612ee6565b5086600c60010190805190602001906122e2929190612ee6565b5085600c60020190805190602001906122fc929190612ee6565b5084600c6003019080519060200190612316929190612ee6565b5083600c6004019080519060200190612330929190612ee6565b50600c600360008b73ffffffffffffffffffffffffffffffffffffffff1673ffffffffffffffffffffffffffffffffffffffff16815260200190815260200160002060008201816000019080546001816001161561010002031660029004612399929190612f66565b50600182018160010190805460018160011615610100020316600290046123c1929190612f66565b50600282018160020190805460018160011615610100020316600290046123e9929190612f66565b5060038201816003019080546001816001161561010002031660029004612411929190612f66565b5060048201816004019080546001816001161561010002031660029004612439929190612f66565b509050506040805190810160405280600881526020017f50524f4455434552000000000000000000000000000000000000000000000000815250600560008b73ffffffffffffffffffffffffffffffffffffffff1673ffffffffffffffffffffffffffffffffffffffff16815260200190815260200160002090805190602001906124c5929190612ee6565b508873ffffffffffffffffffffffffffffffffffffffff163373ffffffffffffffffffffffffffffffffffffffff167ff38048a8487a9352f87561aa442e92de7d09d55718b8bfc9b16720ea061c35c760405160405180910390a36001925050509695505050505050565b60008060008060009054906101000a900473ffffffffffffffffffffffffffffffffffffffff1673ffffffffffffffffffffffffffffffffffffffff163373ffffffffffffffffffffffffffffffffffffffff1614151561259057600080fd5b3342604051602001808373ffffffffffffffffffffffffffffffffffffffff1673ffffffffffffffffffffffffffffffffffffffff166c01000000000000000000000000028152601401828152602001925050506040516020818303038152906040526040518082805190602001908083835b6020831015156126285780518252602082019150602081019050602083039250612603565b6001836020036101000a03801982511681845116808217855250505050505090500191505060405180910390206001900491508190508860066001019080519060200190612677929190612ee6565b508760066000019080519060200190612691929190612ee6565b5086600660020190805190602001906126ab929190612ee6565b5085600660030190805190602001906126c5929190612ee6565b5084600660040190805190602001906126df929190612ee6565b5083600660050190805190602001906126f9929190612ee6565b506006600260008373ffffffffffffffffffffffffffffffffffffffff1673ffffffffffffffffffffffffffffffffffffffff16815260200190815260200160002060008201816000019080546001816001161561010002031660029004612762929190612f66565b506001820181600101908054600181600116156101000203166002900461278a929190612f66565b50600282018160020190805460018160011615610100020316600290046127b2929190612f66565b50600382018160030190805460018160011615610100020316600290046127da929190612f66565b5060048201816004019080546001816001161561010002031660029004612802929190612f66565b506005820181600501908054600181600116156101000203166002900461282a929190612f66565b509050506040805190810160405280600f81526020017f4641524d5f494e5350454354494f4e0000000000000000000000000000000000815250600560008373ffffffffffffffffffffffffffffffffffffffff1673ffffffffffffffffffffffffffffffffffffffff16815260200190815260200160002090805190602001906128b6929190612ee6565b508073ffffffffffffffffffffffffffffffffffffffff163373ffffffffffffffffffffffffffffffffffffffff167ffb0cd0976d848f2ad8c4a6963c1295c96186b2f3919c8204b4fcb350fc36a31f60405160405180910390a36001925050509695505050505050565b60608060608060608061293261303f565b600260008973ffffffffffffffffffffffffffffffffffffffff1673ffffffffffffffffffffffffffffffffffffffff16815260200190815260200160002060c06040519081016040529081600082018054600181600116156101000203166002900480601f016020809104026020016040519081016040528092919081815260200182805460018160011615610100020316600290048015612a165780601f106129eb57610100808354040283529160200191612a16565b820191906000526020600020905b8154815290600101906020018083116129f957829003601f168201915b50505050508152602001600182018054600181600116156101000203166002900480601f016020809104026020016040519081016040528092919081815260200182805460018160011615610100020316600290048015612ab85780601f10612a8d57610100808354040283529160200191612ab8565b820191906000526020600020905b815481529060010190602001808311612a9b57829003601f168201915b50505050508152602001600282018054600181600116156101000203166002900480601f016020809104026020016040519081016040528092919081815260200182805460018160011615610100020316600290048015612b5a5780601f10612b2f57610100808354040283529160200191612b5a565b820191906000526020600020905b815481529060010190602001808311612b3d57829003601f168201915b50505050508152602001600382018054600181600116156101000203166002900480601f016020809104026020016040519081016040528092919081815260200182805460018160011615610100020316600290048015612bfc5780601f10612bd157610100808354040283529160200191612bfc565b820191906000526020600020905b815481529060010190602001808311612bdf57829003601f168201915b50505050508152602001600482018054600181600116156101000203166002900480601f016020809104026020016040519081016040528092919081815260200182805460018160011615610100020316600290048015612c9e5780601f10612c7357610100808354040283529160200191612c9e565b820191906000526020600020905b815481529060010190602001808311612c8157829003601f168201915b50505050508152602001600582018054600181600116156101000203166002900480601f016020809104026020016040519081016040528092919081815260200182805460018160011615610100020316600290048015612d405780601f10612d1557610100808354040283529160200191612d40565b820191906000526020600020905b815481529060010190602001808311612d2357829003601f168201915b5050505050815250509050806020015181600001518260400151836060015184608001518560a001518595508494508393508292508191508090509650965096509650965096505091939550919395565b6000809054906101000a900473ffffffffffffffffffffffffffffffffffffffff1673ffffffffffffffffffffffffffffffffffffffff163373ffffffffffffffffffffffffffffffffffffffff16141515612dec57600080fd5b600073ffffffffffffffffffffffffffffffffffffffff168173ffffffffffffffffffffffffffffffffffffffff1614151515612e2857600080fd5b8073ffffffffffffffffffffffffffffffffffffffff166000809054906101000a900473ffffffffffffffffffffffffffffffffffffffff1673ffffffffffffffffffffffffffffffffffffffff167f8be0079c531659141344cd1fd0a4f28419497f9722a3daafe3b4186f6b6457e060405160405180910390a3806000806101000a81548173ffffffffffffffffffffffffffffffffffffffff021916908373ffffffffffffffffffffffffffffffffffffffff16021790555050565b828054600181600116156101000203166002900490600052602060002090601f016020900481019282601f10612f2757805160ff1916838001178555612f55565b82800160010185558215612f55579182015b82811115612f54578251825591602001919060010190612f39565b5b509050612f629190613076565b5090565b828054600181600116156101000203166002900490600052602060002090601f016020900481019282601f10612f9f5780548555612fdc565b82800160010185558215612fdc57600052602060002091601f016020900482015b82811115612fdb578254825591600101919060010190612fc0565b5b509050612fe99190613076565b5090565b60a06040519081016040528060608152602001606081526020016060815260200160608152602001606081525090565b6060604051908101604052806060815260200160608152602001606081525090565b60c0604051908101604052806060815260200160608152602001606081526020016060815260200160608152602001606081525090565b61309891905b8082111561309457600081600090555060010161307c565b5090565b905600a165627a7a7230582033742110173a97f1d95305240f940a46d04e4dfcb9f52d476bfde3ff2f11b9df0029",
  "source": "pragma solidity ^0.4.24;\nimport \"./SupplyChainUser.sol\";\nimport \"./Ownable.sol\";\n\ncontract FoodSupplyChain is Ownable\n{\n    SupplyChainUser supplyChainUser;\n    \n    constructor(address _supplyChainUser) public {\n        supplyChainUser = SupplyChainUser(_supplyChainUser);\n    }\n  \n    event AuthorizedCaller(address caller);\n    event DeAuthorizedCaller(address caller);\n    event PerformCultivation(address indexed user, address indexed batchNo);\n    event DoneInspection(address indexed user, address indexed batchNo);\n    event DoneProducing(address indexed user, address indexed batchNo);\n    \n    /*Modifier*/\n    modifier isValidPerformer(address batchNo, string role) {\n        require(keccak256(abi.encodePacked(supplyChainUser.getUserRole(msg.sender))) == keccak256(abi.encodePacked(role)));\n        require(keccak256(abi.encodePacked(getNextAction(batchNo))) == keccak256(abi.encodePacked(role)));\n        _;\n    }\n    \n    /*User Roles\n        SUPER_ADMIN,\n        FARM_INSPECTION,\n        PRODUCER,\n        EXPORTER,\n        CARRIER,\n        DISTRIBUTOR,\n        PROCESSOR,\n        RETAILER\n    */\n    \n        /* Process Related */\n     struct basicDetails {\n        string foodName;      \n        string registrationNo;\n        string farmerName;\n        string farmAddress;\n        string exporterName;\n        string carrierName;\n    }\n    \n    struct farmInspector {\n        string soilType;\n        string typeOfSeed;\n        string fertilizerUsed;\n        string processName;\n        string certificateNumber;\n    }\n    \n    struct producer {\n        string cropVariety;\n        string temperatureUsed;\n        string humidity;\n    }    \n    \n    mapping (address => basicDetails) batchBasicDetails;\n    mapping (address => farmInspector) batchFarmInspector;\n    mapping (address => producer) batchProducer;\n    mapping (address => string) nextAction;\n    \n    /*Initialize struct pointer*/\n    basicDetails basicDetailsData;\n    farmInspector farmInspectorData;\n    producer producerData;\n    \n    /* Get Next Action  */    \n    function getNextAction(address _batchNo) public view returns(string action){\n       return nextAction[_batchNo];\n    }\n    \n    function setNextAction(address _batchNo, string _action) public {\n        nextAction[_batchNo] = _action;\n    }\n\n    /* get Basic Details */\n    function getBasicDetails(address _batchNo) public view returns (string registrationNo,\n                                                               string foodName,\n                                                               string farmerName,\n                                                               string farmAddress,\n                                                               string exporterName,\n                                                               string carrierName) {\n        /* Call Storage Contract */\n        basicDetails memory tmpData = batchBasicDetails[_batchNo];\n        \n        return (tmpData.registrationNo,\n                tmpData.foodName,\n                tmpData.farmerName,\n                tmpData.farmAddress,\n                tmpData.exporterName,\n                tmpData.carrierName);\n    }\n\n    /* perform Basic Cultivation */\n    function addBasicDetails(string _registrationNo,\n                             string _foodName,    \n                             string _farmerName,\n                             string _farmAddress,\n                             string _exporterName,\n                             string _carrierName\n                            ) public onlyOwner returns(bool) {\n    \n        uint tmpData = uint(keccak256(abi.encodePacked(msg.sender, now)));\n        address batchNo = address(tmpData);\n        \n        basicDetailsData.registrationNo = _registrationNo;\n        basicDetailsData.foodName = _foodName;\n        basicDetailsData.farmerName = _farmerName;\n        basicDetailsData.farmAddress = _farmAddress;\n        basicDetailsData.exporterName = _exporterName;\n        basicDetailsData.carrierName = _carrierName;\n        \n        batchBasicDetails[batchNo] = basicDetailsData;\n        \n        nextAction[batchNo] = 'FARM_INSPECTION';   \n\n        emit PerformCultivation(msg.sender, batchNo); \n        \n        return true;\n    }                            \n    \n    /* get Farm Inspection */\n    function getFarmInspectorData(address _batchNo) public view returns (string soilType,\n                                                                    string typeOfSeed,\n                                                                    string fertilizerUsed,\n                                                                    string processName,\n                                                                    string certificateNumber) {\n        farmInspector memory tmpData = batchFarmInspector[_batchNo];\n        return (tmpData.soilType, tmpData.typeOfSeed, tmpData.fertilizerUsed, tmpData.processName, tmpData.certificateNumber);\n    }\n    \n    /* perform Farm Inspection */\n    function updateFarmInspectorData(address _batchNo,\n                                    string _soilType,\n                                    string _typeOfSeed,\n                                    string _fertilizerUsed,\n                                    string _processName,\n                                    string _certificateNumber) \n                                public isValidPerformer(_batchNo,'FARM_INSPECTION') returns(bool) {\n        farmInspectorData.soilType = _soilType;\n        farmInspectorData.typeOfSeed = _typeOfSeed;\n        farmInspectorData.fertilizerUsed = _fertilizerUsed;\n        farmInspectorData.processName = _processName;\n        farmInspectorData.certificateNumber = _certificateNumber;\n        \n        batchFarmInspector[_batchNo] = farmInspectorData;\n        \n        nextAction[_batchNo] = 'PRODUCER';   \n        \n        emit DoneInspection(msg.sender, _batchNo);\n        return true;\n    }\n\n    /*get farm Harvester data*/\n    function getProducerData(address batchNo) public view returns(string cropVariety,\n                                                             string temperatureUsed,\n                                                             string humidity){\n        \n        producer memory tmpData = batchProducer[batchNo];\n        return (tmpData.cropVariety, tmpData.temperatureUsed, tmpData.humidity);\n    }\n    \n    /*set Producer data*/\n    function updateProducerData(address _batchNo,\n                              string _cropVariety,\n                              string _temperatureUsed,\n                              string _humidity) public isValidPerformer(_batchNo,'PRODUCER') returns(bool){\n        \n        producerData.cropVariety = _cropVariety;\n        producerData.temperatureUsed = _temperatureUsed;\n        producerData.humidity = _humidity;\n        \n        batchProducer[_batchNo] = producerData;\n        \n        nextAction[_batchNo] = 'EXPORTER';  \n        \n        emit DoneProducing(msg.sender, _batchNo);\n        return true;\n    }    \n\n}\n",
  "sourcePath": "/opt/lampp/htdocs/web3/food_supply_chain_contract/contracts/FoodSupplyChain.sol",
  "compiler": {
    "name": "solc",
    "version": "0.4.24+commit.e67f0147.Emscripten.clang"
  },
  "schemaVersion": "2.0.1",
  "updatedAt": "2018-09-17T08:58:29.928Z"
}