{
  "contractName": "SupplyChainUser",
  "abi": [
    {
      "constant": true,
      "inputs": [
        {
          "name": "",
          "type": "address"
        }
      ],
      "name": "userRole",
      "outputs": [
        {
          "name": "",
          "type": "string"
        }
      ],
      "payable": false,
      "stateMutability": "view",
      "type": "function"
    },
    {
      "constant": false,
      "inputs": [],
      "name": "renounceOwnership",
      "outputs": [],
      "payable": false,
      "stateMutability": "nonpayable",
      "type": "function"
    },
    {
      "constant": true,
      "inputs": [],
      "name": "owner",
      "outputs": [
        {
          "name": "",
          "type": "address"
        }
      ],
      "payable": false,
      "stateMutability": "view",
      "type": "function"
    },
    {
      "constant": false,
      "inputs": [
        {
          "name": "newOwner",
          "type": "address"
        }
      ],
      "name": "transferOwnership",
      "outputs": [],
      "payable": false,
      "stateMutability": "nonpayable",
      "type": "function"
    },
    {
      "anonymous": false,
      "inputs": [
        {
          "indexed": true,
          "name": "user",
          "type": "address"
        },
        {
          "indexed": false,
          "name": "name",
          "type": "string"
        },
        {
          "indexed": false,
          "name": "contactNo",
          "type": "string"
        },
        {
          "indexed": false,
          "name": "role",
          "type": "string"
        },
        {
          "indexed": false,
          "name": "isActive",
          "type": "bool"
        },
        {
          "indexed": false,
          "name": "profileHash",
          "type": "string"
        }
      ],
      "name": "UserUpdate",
      "type": "event"
    },
    {
      "anonymous": false,
      "inputs": [
        {
          "indexed": true,
          "name": "user",
          "type": "address"
        },
        {
          "indexed": false,
          "name": "role",
          "type": "string"
        }
      ],
      "name": "UserRoleUpdate",
      "type": "event"
    },
    {
      "anonymous": false,
      "inputs": [
        {
          "indexed": true,
          "name": "previousOwner",
          "type": "address"
        }
      ],
      "name": "OwnershipRenounced",
      "type": "event"
    },
    {
      "anonymous": false,
      "inputs": [
        {
          "indexed": true,
          "name": "previousOwner",
          "type": "address"
        },
        {
          "indexed": true,
          "name": "newOwner",
          "type": "address"
        }
      ],
      "name": "OwnershipTransferred",
      "type": "event"
    },
    {
      "constant": true,
      "inputs": [
        {
          "name": "_userAddress",
          "type": "address"
        }
      ],
      "name": "getUserRole",
      "outputs": [
        {
          "name": "",
          "type": "string"
        }
      ],
      "payable": false,
      "stateMutability": "view",
      "type": "function"
    },
    {
      "constant": false,
      "inputs": [
        {
          "name": "_name",
          "type": "string"
        },
        {
          "name": "_contactNo",
          "type": "string"
        },
        {
          "name": "_role",
          "type": "string"
        },
        {
          "name": "_isActive",
          "type": "bool"
        },
        {
          "name": "_profileHash",
          "type": "string"
        }
      ],
      "name": "updateUser",
      "outputs": [
        {
          "name": "",
          "type": "bool"
        }
      ],
      "payable": false,
      "stateMutability": "nonpayable",
      "type": "function"
    },
    {
      "constant": false,
      "inputs": [
        {
          "name": "_userAddress",
          "type": "address"
        },
        {
          "name": "_name",
          "type": "string"
        },
        {
          "name": "_contactNo",
          "type": "string"
        },
        {
          "name": "_role",
          "type": "string"
        },
        {
          "name": "_isActive",
          "type": "bool"
        },
        {
          "name": "_profileHash",
          "type": "string"
        }
      ],
      "name": "updateUserForAdmin",
      "outputs": [
        {
          "name": "",
          "type": "bool"
        }
      ],
      "payable": false,
      "stateMutability": "nonpayable",
      "type": "function"
    },
    {
      "constant": true,
      "inputs": [
        {
          "name": "_userAddress",
          "type": "address"
        }
      ],
      "name": "getUser",
      "outputs": [
        {
          "name": "name",
          "type": "string"
        },
        {
          "name": "contactNo",
          "type": "string"
        },
        {
          "name": "role",
          "type": "string"
        },
        {
          "name": "isActive",
          "type": "bool"
        },
        {
          "name": "profileHash",
          "type": "string"
        }
      ],
      "payable": false,
      "stateMutability": "view",
      "type": "function"
    }
  ],
  "bytecode": "0x6080604052336000806101000a81548173ffffffffffffffffffffffffffffffffffffffff021916908373ffffffffffffffffffffffffffffffffffffffff160217905550611a39806100536000396000f30060806040526004361061008e576000357c0100000000000000000000000000000000000000000000000000000000900463ffffffff1680631e7d76aa146100935780632782085114610212578063534f5680146102ce5780636f77926b1461038a578063715018a6146105955780638da5cb5b146105ac578063f2fde38b14610603578063f5c8dee914610646575b600080fd5b34801561009f57600080fd5b506101f8600480360381019080803573ffffffffffffffffffffffffffffffffffffffff169060200190929190803590602001908201803590602001908080601f0160208091040260200160405190810160405280939291908181526020018383808284378201915050505050509192919290803590602001908201803590602001908080601f0160208091040260200160405190810160405280939291908181526020018383808284378201915050505050509192919290803590602001908201803590602001908080601f0160208091040260200160405190810160405280939291908181526020018383808284378201915050505050509192919290803515159060200190929190803590602001908201803590602001908080601f01602080910402602001604051908101604052809392919081815260200183838082843782019150505050505091929192905050506107a5565b604051808215151515815260200191505060405180910390f35b34801561021e57600080fd5b50610253600480360381019080803573ffffffffffffffffffffffffffffffffffffffff169060200190929190505050610cac565b6040518080602001828103825283818151815260200191508051906020019080838360005b83811015610293578082015181840152602081019050610278565b50505050905090810190601f1680156102c05780820380516001836020036101000a031916815260200191505b509250505060405180910390f35b3480156102da57600080fd5b5061030f600480360381019080803573ffffffffffffffffffffffffffffffffffffffff169060200190929190505050610d8d565b6040518080602001828103825283818151815260200191508051906020019080838360005b8381101561034f578082015181840152602081019050610334565b50505050905090810190601f16801561037c5780820380516001836020036101000a031916815260200191505b509250505060405180910390f35b34801561039657600080fd5b506103cb600480360381019080803573ffffffffffffffffffffffffffffffffffffffff169060200190929190505050610e3d565b60405180806020018060200180602001861515151581526020018060200185810385528a818151815260200191508051906020019080838360005b83811015610421578082015181840152602081019050610406565b50505050905090810190601f16801561044e5780820380516001836020036101000a031916815260200191505b50858103845289818151815260200191508051906020019080838360005b8381101561048757808201518184015260208101905061046c565b50505050905090810190601f1680156104b45780820380516001836020036101000a031916815260200191505b50858103835288818151815260200191508051906020019080838360005b838110156104ed5780820151818401526020810190506104d2565b50505050905090810190601f16801561051a5780820380516001836020036101000a031916815260200191505b50858103825286818151815260200191508051906020019080838360005b83811015610553578082015181840152602081019050610538565b50505050905090810190601f1680156105805780820380516001836020036101000a031916815260200191505b50995050505050505050505060405180910390f35b3480156105a157600080fd5b506105aa6111e4565b005b3480156105b857600080fd5b506105c16112e6565b604051808273ffffffffffffffffffffffffffffffffffffffff1673ffffffffffffffffffffffffffffffffffffffff16815260200191505060405180910390f35b34801561060f57600080fd5b50610644600480360381019080803573ffffffffffffffffffffffffffffffffffffffff16906020019092919050505061130b565b005b34801561065257600080fd5b5061078b600480360381019080803590602001908201803590602001908080601f0160208091040260200160405190810160405280939291908181526020018383808284378201915050505050509192919290803590602001908201803590602001908080601f0160208091040260200160405190810160405280939291908181526020018383808284378201915050505050509192919290803590602001908201803590602001908080601f0160208091040260200160405190810160405280939291908181526020018383808284378201915050505050509192919290803515159060200190929190803590602001908201803590602001908080601f0160208091040260200160405190810160405280939291908181526020018383808284378201915050505050509192919290505050611460565b604051808215151515815260200191505060405180910390f35b60008060009054906101000a900473ffffffffffffffffffffffffffffffffffffffff1673ffffffffffffffffffffffffffffffffffffffff163373ffffffffffffffffffffffffffffffffffffffff1614151561080257600080fd5b600073ffffffffffffffffffffffffffffffffffffffff168773ffffffffffffffffffffffffffffffffffffffff161415151561083e57600080fd5b85600160000190805190602001906108579291906118b6565b50846001800190805190602001906108709291906118b6565b5082600160020160006101000a81548160ff02191690831515021790555081600160030190805190602001906108a79291906118b6565b506001600560008973ffffffffffffffffffffffffffffffffffffffff1673ffffffffffffffffffffffffffffffffffffffff16815260200190815260200160002060008201816000019080546001816001161561010002031660029004610910929190611936565b5060018201816001019080546001816001161561010002031660029004610938929190611936565b506002820160009054906101000a900460ff168160020160006101000a81548160ff0219169083151502179055506003820181600301908054600181600116156101000203166002900461098d929190611936565b5090505083600660008973ffffffffffffffffffffffffffffffffffffffff1673ffffffffffffffffffffffffffffffffffffffff16815260200190815260200160002090805190602001906109e49291906118b6565b508673ffffffffffffffffffffffffffffffffffffffff167f913673700610456ef7bb668e20badb980d1e4df0ba5bfbdbb6e7bfb0ddbcc6c9878787878760405180806020018060200180602001861515151581526020018060200185810385528a818151815260200191508051906020019080838360005b83811015610a78578082015181840152602081019050610a5d565b50505050905090810190601f168015610aa55780820380516001836020036101000a031916815260200191505b50858103845289818151815260200191508051906020019080838360005b83811015610ade578082015181840152602081019050610ac3565b50505050905090810190601f168015610b0b5780820380516001836020036101000a031916815260200191505b50858103835288818151815260200191508051906020019080838360005b83811015610b44578082015181840152602081019050610b29565b50505050905090810190601f168015610b715780820380516001836020036101000a031916815260200191505b50858103825286818151815260200191508051906020019080838360005b83811015610baa578082015181840152602081019050610b8f565b50505050905090810190601f168015610bd75780820380516001836020036101000a031916815260200191505b50995050505050505050505060405180910390a28673ffffffffffffffffffffffffffffffffffffffff167f3b419384c2ac88d62e2daac72f8c6e6398c474d91c63e814a307e3641762c8de856040518080602001828103825283818151815260200191508051906020019080838360005b83811015610c64578082015181840152602081019050610c49565b50505050905090810190601f168015610c915780820380516001836020036101000a031916815260200191505b509250505060405180910390a2600190509695505050505050565b6060600660008373ffffffffffffffffffffffffffffffffffffffff1673ffffffffffffffffffffffffffffffffffffffff1681526020019081526020016000208054600181600116156101000203166002900480601f016020809104026020016040519081016040528092919081815260200182805460018160011615610100020316600290048015610d815780601f10610d5657610100808354040283529160200191610d81565b820191906000526020600020905b815481529060010190602001808311610d6457829003601f168201915b50505050509050919050565b60066020528060005260406000206000915090508054600181600116156101000203166002900480601f016020809104026020016040519081016040528092919081815260200182805460018160011615610100020316600290048015610e355780601f10610e0a57610100808354040283529160200191610e35565b820191906000526020600020905b815481529060010190602001808311610e1857829003601f168201915b505050505081565b606080606060006060610e4e6119bd565b600073ffffffffffffffffffffffffffffffffffffffff168773ffffffffffffffffffffffffffffffffffffffff1614151515610e8a57600080fd5b600560008873ffffffffffffffffffffffffffffffffffffffff1673ffffffffffffffffffffffffffffffffffffffff16815260200190815260200160002060806040519081016040529081600082018054600181600116156101000203166002900480601f016020809104026020016040519081016040528092919081815260200182805460018160011615610100020316600290048015610f6e5780601f10610f4357610100808354040283529160200191610f6e565b820191906000526020600020905b815481529060010190602001808311610f5157829003601f168201915b50505050508152602001600182018054600181600116156101000203166002900480601f0160208091040260200160405190810160405280929190818152602001828054600181600116156101000203166002900480156110105780601f10610fe557610100808354040283529160200191611010565b820191906000526020600020905b815481529060010190602001808311610ff357829003601f168201915b505050505081526020016002820160009054906101000a900460ff16151515158152602001600382018054600181600116156101000203166002900480601f0160208091040260200160405190810160405280929190818152602001828054600181600116156101000203166002900480156110cd5780601f106110a2576101008083540402835291602001916110cd565b820191906000526020600020905b8154815290600101906020018083116110b057829003601f168201915b505050505081525050905080600001518160200151600660008a73ffffffffffffffffffffffffffffffffffffffff1673ffffffffffffffffffffffffffffffffffffffff16815260200190815260200160002083604001518460600151849450839350828054600181600116156101000203166002900480601f0160208091040260200160405190810160405280929190818152602001828054600181600116156101000203166002900480156111c65780601f1061119b576101008083540402835291602001916111c6565b820191906000526020600020905b8154815290600101906020018083116111a957829003601f168201915b50505050509250809050955095509550955095505091939590929450565b6000809054906101000a900473ffffffffffffffffffffffffffffffffffffffff1673ffffffffffffffffffffffffffffffffffffffff163373ffffffffffffffffffffffffffffffffffffffff1614151561123f57600080fd5b6000809054906101000a900473ffffffffffffffffffffffffffffffffffffffff1673ffffffffffffffffffffffffffffffffffffffff167ff8df31144d9c2f0f6b59d69b8b98abd5459d07f2742c4df920b25aae33c6482060405160405180910390a260008060006101000a81548173ffffffffffffffffffffffffffffffffffffffff021916908373ffffffffffffffffffffffffffffffffffffffff160217905550565b6000809054906101000a900473ffffffffffffffffffffffffffffffffffffffff1681565b6000809054906101000a900473ffffffffffffffffffffffffffffffffffffffff1673ffffffffffffffffffffffffffffffffffffffff163373ffffffffffffffffffffffffffffffffffffffff1614151561136657600080fd5b600073ffffffffffffffffffffffffffffffffffffffff168173ffffffffffffffffffffffffffffffffffffffff16141515156113a257600080fd5b8073ffffffffffffffffffffffffffffffffffffffff166000809054906101000a900473ffffffffffffffffffffffffffffffffffffffff1673ffffffffffffffffffffffffffffffffffffffff167f8be0079c531659141344cd1fd0a4f28419497f9722a3daafe3b4186f6b6457e060405160405180910390a3806000806101000a81548173ffffffffffffffffffffffffffffffffffffffff021916908373ffffffffffffffffffffffffffffffffffffffff16021790555050565b60008073ffffffffffffffffffffffffffffffffffffffff163373ffffffffffffffffffffffffffffffffffffffff161415151561149d57600080fd5b85600160000190805190602001906114b69291906118b6565b50846001800190805190602001906114cf9291906118b6565b5082600160020160006101000a81548160ff02191690831515021790555081600160030190805190602001906115069291906118b6565b506001600560003373ffffffffffffffffffffffffffffffffffffffff1673ffffffffffffffffffffffffffffffffffffffff1681526020019081526020016000206000820181600001908054600181600116156101000203166002900461156f929190611936565b5060018201816001019080546001816001161561010002031660029004611597929190611936565b506002820160009054906101000a900460ff168160020160006101000a81548160ff021916908315150217905550600382018160030190805460018160011615610100020316600290046115ec929190611936565b509050503373ffffffffffffffffffffffffffffffffffffffff167f913673700610456ef7bb668e20badb980d1e4df0ba5bfbdbb6e7bfb0ddbcc6c9878787878760405180806020018060200180602001861515151581526020018060200185810385528a818151815260200191508051906020019080838360005b83811015611683578082015181840152602081019050611668565b50505050905090810190601f1680156116b05780820380516001836020036101000a031916815260200191505b50858103845289818151815260200191508051906020019080838360005b838110156116e95780820151818401526020810190506116ce565b50505050905090810190601f1680156117165780820380516001836020036101000a031916815260200191505b50858103835288818151815260200191508051906020019080838360005b8381101561174f578082015181840152602081019050611734565b50505050905090810190601f16801561177c5780820380516001836020036101000a031916815260200191505b50858103825286818151815260200191508051906020019080838360005b838110156117b557808201518184015260208101905061179a565b50505050905090810190601f1680156117e25780820380516001836020036101000a031916815260200191505b50995050505050505050505060405180910390a23373ffffffffffffffffffffffffffffffffffffffff167f3b419384c2ac88d62e2daac72f8c6e6398c474d91c63e814a307e3641762c8de856040518080602001828103825283818151815260200191508051906020019080838360005b8381101561186f578082015181840152602081019050611854565b50505050905090810190601f16801561189c5780820380516001836020036101000a031916815260200191505b509250505060405180910390a26001905095945050505050565b828054600181600116156101000203166002900490600052602060002090601f016020900481019282601f106118f757805160ff1916838001178555611925565b82800160010185558215611925579182015b82811115611924578251825591602001919060010190611909565b5b50905061193291906119e8565b5090565b828054600181600116156101000203166002900490600052602060002090601f016020900481019282601f1061196f57805485556119ac565b828001600101855582156119ac57600052602060002091601f016020900482015b828111156119ab578254825591600101919060010190611990565b5b5090506119b991906119e8565b5090565b6080604051908101604052806060815260200160608152602001600015158152602001606081525090565b611a0a91905b80821115611a065760008160009055506001016119ee565b5090565b905600a165627a7a723058205445d43cf1e2d3da0b9216727e57b4a10f5377c61bcacfd91b8a800877e8ff3c0029",
  "source": "pragma solidity ^0.4.24;\nimport \"./Ownable.sol\";\n\ncontract SupplyChainUser is Ownable\n{\n     /*Events*/ \n    event UserUpdate(address indexed user, string name, string contactNo, string role, bool isActive, string profileHash);\n    event UserRoleUpdate(address indexed user, string role); \n\n    \n     /* User Related */\n    struct user {\n        string name;\n        string contactNo;\n        bool isActive;\n        string profileHash;\n    }\n    \n    /*Initialize struct pointer*/\n    user userDetail;\n    \n    mapping(address => user) userDetails;\n    mapping(address => string) public userRole;\n    \n    \n    /*User Roles\n        SUPER_ADMIN,\n        FARM_INSPECTION,\n        PRODUCER,\n        EXPORTER,\n        CARRIER,\n        DISTRIBUTOR,\n        PROCESSOR,\n        RETAILER\n    */\n    \n    /* Get User Role */\n    function getUserRole(address _userAddress) public view returns(string)\n    {\n        return userRole[_userAddress];\n    }   \n    \n    /* Create/Update User */\n\n    function updateUser(string _name, string _contactNo, string _role, bool _isActive,string _profileHash) public returns(bool)\n    {\n        require(msg.sender != address(0));\n        \n        userDetail.name = _name;\n        userDetail.contactNo = _contactNo;\n        userDetail.isActive = _isActive;\n        userDetail.profileHash = _profileHash;\n        \n        userDetails[msg.sender] = userDetail;\n        \n         /*call event*/\n        emit UserUpdate(msg.sender,_name,_contactNo,_role,_isActive,_profileHash);\n        emit UserRoleUpdate(msg.sender,_role);\n        \n        return true;\n    }\n    \n    /* Create/Update User For Admin  */\n    function updateUserForAdmin(address _userAddress, string _name, string _contactNo, string _role, bool _isActive,string _profileHash) public onlyOwner returns(bool)\n    {\n        require(_userAddress != address(0));\n        \n        userDetail.name = _name;\n        userDetail.contactNo = _contactNo;\n        userDetail.isActive = _isActive;\n        userDetail.profileHash = _profileHash;\n        \n        userDetails[_userAddress] = userDetail;\n        \n        userRole[_userAddress] = _role;\n        \n        /*call event*/\n        emit UserUpdate(_userAddress,_name,_contactNo,_role,_isActive,_profileHash);\n        emit UserRoleUpdate(_userAddress,_role);\n        \n        return true;\n    }\n    \n    /* get User */\n    function getUser(address _userAddress) public view returns(string name, string contactNo, string role, bool isActive , string profileHash){\n        require(_userAddress != address(0));\n        \n        /*Getting value from struct*/\n        user memory tmpData = userDetails[_userAddress];\n       \n       return (tmpData.name, tmpData.contactNo, userRole[_userAddress], tmpData.isActive, tmpData.profileHash);\n    }\n}\n",
  "sourcePath": "/opt/lampp/htdocs/web3/food_supply_chain_contract/contracts/SupplyChainUser.sol",
  "compiler": {
    "name": "solc",
    "version": "0.4.24+commit.e67f0147.Emscripten.clang"
  },
  "schemaVersion": "2.0.1",
  "updatedAt": "2018-09-17T08:58:30.009Z"
}